:100000000C948A000C94B2000C94B2000C94B200D0
:100010000C94B2000C94B2000C94B2000C94B20098
:100020000C94B2000C94B2000C94B2000C94B20088
:100030000C94B2000C94B2000C94B2000C94B20078
:100040000C947C060C94B2000C944A060C94240682
:100050000C94B2000C94B2000C94B2000C94B20058
:100060000C94C6060C94B20008000000BE9224490D
:10007000123EABAAAA2ABECDCCCC4C3E00000080DA
:10008000BEABAAAAAA3E00000000BF000000803F4D
:100090000000000000084178D3BB4387D1133D190D
:1000A0000E3CC3BD4282AD2B3E68EC8276BED98F3A
:1000B000E1A93E4C80EFFFBE01C4FF7F3F0000007E
:1000C000000000000000240027002A0000000000BB
:1000D000250028002B000404040404040404020284
:1000E00002020202030303030303010204081020B7
:1000F00040800102040810200102040810200000C2
:1001000000080002010000030407000000000000D6
:100110000000E10711241FBECFEFD4E0DEBFCDBF4A
:1001200011E0A0E0B1E0E0E7F9E102C005900D9236
:10013000A03DB107D9F722E0A0EDB1E001C01D92CA
:10014000A43FB207E1F710E0CAE8D0E004C021976D
:10015000FE010E94B00CC938D107C9F70E940E08F1
:100160000C94B60C0C940000AF92BF92CF92DF9229
:10017000EF92FF920F931F93CF93DF936C017B015C
:100180008B01040F151FEB015E01AE18BF08C017ED
:10019000D10759F06991D601ED91FC910190F08160
:1001A000E02DC6010995892B79F7C501DF91CF9123
:1001B0001F910F91FF90EF90DF90CF90BF90AF9085
:1001C0000895FC01538D448D252F30E0842F90E05D
:1001D000821B930B541710F0CF9608950197089542
:1001E000FC01918D828D981761F0A28DAE0FBF2F0B
:1001F000B11D5D968C91928D9F5F9F73928F90E061
:1002000008958FEF9FEF0895FC01918D828D9817CF
:1002100031F0828DE80FF11D858D90E008958FEF0C
:100220009FEF0895FC01918D228D892F90E0805CD5
:100230009F4F821B91098F739927089587E592E05C
:100240000E94120121E0892B09F420E0822F0895F9
:1002500080E090E0892B29F00E941E0181110C940E
:1002600000000895FC01A48DA80FB92FB11DA35A59
:10027000BF4F2C91848D90E001968F739927848FC6
:10028000A689B7892C93A089B1898C9183708064E9
:100290008C93938D848D981306C00288F389E02D8A
:1002A00080818F7D80830895EF92FF920F931F933B
:1002B000CF93DF93EC0181E0888F9B8D8C8D981319
:1002C0001AC0E889F989808185FF15C09FB7F89425
:1002D000EE89FF896083E889F98980818370806471
:1002E00080839FBF81E090E0DF91CF911F910F91BC
:1002F000FF90EF900895F62E0B8D10E00F5F1F4FCB
:100300000F731127E02E8C8D8E110CC00FB607FCD9
:10031000FACFE889F989808185FFF5CFCE010E9467
:100320003201F1CFEB8DEC0FFD2FF11DE35AFF4FA2
:10033000F0829FB7F8940B8FEA89FB8980818062F5
:10034000CFCFCF93DF93EC01888D8823B9F0AA89B2
:10035000BB89E889F9898C9185FD03C0808186FD80
:100360000DC00FB607FCF7CF8C9185FFF2CF8081CF
:1003700085FFEDCFCE010E943201E9CFDF91CF9111
:10038000089590E0FC01E250FF4F2491FC01E651FA
:10039000FF4F3491FC01EA52FF4FE491EE23C9F084
:1003A000222339F0233001F1A8F4213019F1223051
:1003B00029F1F0E0EE0FFF1FE453FF4FA591B49138
:1003C0008FB7F894EC91611126C030953E233C9391
:1003D0008FBF08952730A9F02830C9F0243049F79D
:1003E000809180008F7D03C0809180008F77809303
:1003F0008000DFCF84B58F7784BDDBCF84B58F7D60
:10040000FBCF8091B0008F778093B000D2CF8091E6
:10041000B0008F7DF9CF3E2BDACFCF93DF9390E002
:10042000FC01E651FF4F24918A529F4FFC018491B9
:100430008823D1F090E0880F991FFC01EE53FF4F05
:10044000A591B491FC01E453FF4FC591D491611182
:100450000EC09FB7F8948C91E22FE0958E238C9379
:100460002881E223E8839FBFDF91CF9108958FB762
:10047000F894EC91E22BEC938FBFF6CF1F93CF93C0
:10048000DF93182FEB0161E00E940D02209739F4F1
:1004900060E0812FDF91CF911F910C94C101CF3F7C
:1004A000D10511F461E0F5CFE12FF0E0E250FF4F0C
:1004B000E491E33031F140F4E130B1F0E230E1F0C9
:1004C000C038D1057CF7E4CFE73029F1E83059F1A5
:1004D000E430B1F780918000806280938000D093F7
:1004E0008B00C0938A0004C084B5806884BDC7BDFA
:1004F000DF91CF911F91089584B5806284BDC8BDFE
:10050000F7CF80918000806880938000D09389002D
:10051000C0938800EDCF8091B00080688093B000D8
:10052000C093B300E5CF8091B00080628093B000AB
:10053000C093B400DDCF8E3008F08E508770806499
:1005400080937C0080917A00806480937A0080910F
:100550007A0086FDFCCF8091780090917900089513
:100560003FB7F8948091480290914902A0914A02C5
:10057000B0914B0226B5A89B05C02F3F19F00196FC
:10058000A11DB11D3FBFBA2FA92F982F8827BC01ED
:10059000CD01620F711D811D911D42E0660F771F15
:1005A000881F991F4A95D1F708952091F901260FC8
:1005B0003327331F21323105ECF420911D02FC0159
:1005C00090E080E0243069F082E00895A091F90184
:1005D0002191AC0147525E4FA40FB52FB11D2C9352
:1005E0000196861798F38091F901680F6093F901DD
:1005F00080E0089581E0089508958FEF9FEF0895BA
:100600008FEF9FEF08958091D20190E091958195B1
:1006100091090895CF93DF93CB01EA01642F0E94E3
:10062000D502CE01DF91CF910895CF93DF931F9232
:10063000CDB7DEB7698361E0CE0101960E94D50295
:1006400081E090E00F90DF91CF91089590E080E0FD
:100650000895EF92FF921F93CF93DF937C01162FA3
:10066000C0915502D0915602BE0186E00E943E0222
:1006700081E0E816F10409F182E0E816F10449F19D
:1006800080914C0290914D0270E060E0892B09F05E
:10069000BE0189E00E943E0280914E0290914F027D
:1006A00070E060E0892B09F0BE018AE0DF91CF9114
:1006B0001F91FF90EF900C943E02112329F0D093EC
:1006C0004D02C0934C02DCCF10924D0210924C02AE
:1006D000D7CF112329F0D0934F02C0934E02D0CF31
:1006E00010924F0210924E02CBCF61E082E090E078
:1006F0000E94290360E081E090E00E94290360E00D
:1007000085E00C94C101FC0101900020E9F73197CC
:10071000AF01481B590BBC0187E592E00C94B40073
:100720008F929F92AF92BF920F931F93CF93DF93BD
:10073000CDB7DEB7A1970FB6F894DEBF0FBECDBF21
:1007400019A2423008F44AE08E010F5D1F4F842E3B
:10075000912CB12CA12CA50194010E948E0CE62FA6
:10076000B901CA01EA30F4F4E05DD801EE938D01DD
:10077000232B242B252B79F790E080E0109719F09C
:10078000CD010E948303A1960FB6F894DEBF0FBE81
:10079000CDBFDF91CF911F910F91BF90AF909F90F0
:1007A0008F900895E95CE1CFCF92DF92EF92FF92B4
:1007B000CF93DF936B017C016DE287E592E00E94AD
:1007C0005401EC0166277727CB016C197D098E094E
:1007D0009F094AE00E9490038C0F9D1FDF91CF91EB
:1007E000FF90EF90DF90CF900895CF93DF930E941A
:1007F0008303EC0182E191E00E9483038C0F9D1F33
:10080000DF91CF910895CF93DF93BC01990F880BAF
:10081000990B97FF0CC00E94D403EC0182E191E098
:100820000E9483038C0F9D1FDF91CF9108954AE0B2
:100830000E949003F2CF4F925F926F927F928F92BD
:100840009F92AF92BF92CF92DF92EF92FF926B0195
:100850007C01AC019B010E94540C8823C1F085E10E
:1008600091E00E9483037C0182E191E00E94830376
:100870008E0D9F1DFF90EF90DF90CF90BF90AF90B7
:100880009F908F907F906F905F904F90089546015A
:100890005701E894B7F82FEF3FEF4FE75FE7C50147
:1008A000B4010E94540C81110DC02FEF3FEF4FE7B0
:1008B0005FE7C501B4010E943A0A18161CF489E1E9
:1008C00091E0CFCF2FEF3FEF4FE75FE4C701B601D5
:1008D0000E94920B18161CF48DE191E0C2CF2FEF0D
:1008E0003FEF4FE75FECC701B6010E943A0A87FD70
:1008F000F3CF20E030E0A901C701B6010E943A0A17
:10090000B12CA12C87FF0AC06DE287E592E00E941E
:1009100054015C01F7FAF094F7F8F0942AE037ED0F
:1009200043EA5BE3C701B6010E94CE092B013C01FB
:100930000E94B10A6B017C010E94E00A9B01AC019C
:10094000C301B2010E94CD092B013C014AE0C7015D
:10095000B6010E9490037C01EA0CFB1C6EE287E565
:1009600092E00E945401E80EF91E20E030E040E2DF
:1009700051E4C301B2010E94E70B2B013C010E942C
:10098000B10A4B01B12CA12C4AE0C501B4010E946F
:100990009003E80EF91EC501B4010E94E00A9B0114
:1009A000AC01C301B2010E94CD0920E030E040E279
:1009B00051E40E94E70B0E94B10A90E080E04AE017
:1009C0000E949003E80EF91E4FCF1F93CF93DF9341
:1009D00085ED8093BC008091D5019091D601A091C6
:1009E000D701B091D8010796A11DB11D23E0B6959E
:1009F000A795979587952A95D1F72091BC0024FD5E
:100A000003C010921D0252C04091D5015091D601F1
:100A10006091D7017091D801452B462B472B69F384
:100A20000097A105B10541F025E32A95F1F70000F3
:100A30000197A109B109E1CF8091D401C1E0C09330
:100A4000D301882399F1D091B8001091BA00809118
:100A5000BC008A7B8093BC0060E082E10E94C101FF
:100A600060E083E10E94C10110921D02C0931F0249
:100A700010921E0261E082E10E94C10161E083E107
:100A80000E94C1018091B9008E7F8093B90080914E
:100A9000B9008D7F8093B90088E48093B80085E425
:100AA0008093BC001093BA00D093B800DF91CF912F
:100AB0001F9108954F925F926F927F928F929F92B3
:100AC000AF92BF92CF92DF92EF92FF92CF93CBE0A3
:100AD000C12CD12C7601C15091F08EE00E949B0276
:100AE000BC01990F880B990B0E94E20A9B01AC0193
:100AF000C701B6010E94CE096B017C01ECCF20E05A
:100B000030E040E251E4C701B6010E943F0A4B01C8
:100B10005C01AC019B0160E070E080E894E40E941D
:100B20003F0A20E030E040E85FE30E94CD0920E08A
:100B300030E04AE754E40E94E70B0E949F0B6B01F0
:100B40007C012CE83DEB4BE957E30E94E70BA70142
:100B500096010E94E70BA70196010E94E70B2B016B
:100B60003C0123EB39EC48E85BEBC701B6010E947E
:100B7000E70B28E931E945ED5CE30E94CE099B01D2
:100B8000AC01C301B2010E94CE099B01AC0160E03F
:100B900070E080E89FE30E943F0A23E333E948E8DE
:100BA00053E40E94CD096B017C0120E030E0A901F3
:100BB000C501B4010E943A0A8823F1F01092520252
:100BC0008091D0019091D1018B309105ECF4019688
:100BD0009093D1018093D001C701B601CF91FF90CE
:100BE000EF90DF90CF90BF90AF909F908F907F90CD
:100BF0006F905F904F90089581E291E00E94F5031D
:100C000081E080935202DCCF1092D1011092D0018A
:100C100088E391E00E948303C501B4010E941B0494
:100C20008AE491E00E948303C701B6010E941B047D
:100C300085E10E949B025C0180E691E00E948303B3
:100C4000C5010E940304C8CF1F920F920FB60F92E6
:100C500011242F933F934F935F936F937F938F93C1
:100C60009F93AF93BF93EF93FF9387E592E00E942A
:100C70003201FF91EF91BF91AF919F918F917F9141
:100C80006F915F914F913F912F910F900FBE0F90F9
:100C90001F9018951F920F920FB60F9211242F9349
:100CA0008F939F93EF93FF93E0916702F091680217
:100CB0008081E0916D02F0916E0282FD1BC09081F7
:100CC000809170028F5F8F7320917102821741F0C3
:100CD000E0917002F0E0E95AFD4F958F8093700229
:100CE000FF91EF919F918F912F910F900FBE0F90D9
:100CF0001F9018958081F4CF1F920F920FB60F921C
:100D000011242F933F938F939F93AF93BF93809121
:100D1000440290914502A0914602B0914702309161
:100D2000430223E0230F2D3758F50196A11DB11D75
:100D3000209343028093440290934502A09346027D
:100D4000B09347028091480290914902A0914A02D3
:100D5000B0914B020196A11DB11D80934802909362
:100D60004902A0934A02B0934B02BF91AF919F9169
:100D70008F913F912F910F900FBE0F901F9018955C
:100D800026E8230F0296A11DB11DD2CF1F920F920C
:100D90000FB60F9211242F933F934F935F936F934E
:100DA0007F938F939F93AF93BF93EF93FF93809124
:100DB000B900887F803609F44AC0F0F5883209F41A
:100DC000A5C018F5803109F499C0B8F4882309F456
:100DD000F5C0883009F492C0FF91EF91BF91AF91B7
:100DE0009F918F917F916F915F914F913F912F9143
:100DF0000F900FBE0F901F901895883109F486C090
:100E0000803251F780931C0214C0803409F49BC0D7
:100E100040F48033B9F38833F9F680931C0285ECF3
:100E2000AEC0803509F483C0883509F494C0883495
:100E300099F60E94E504D0CF883909F48AC038F5C4
:100E4000883729F050F4883611F0803729F683E08E
:100E500080931D0210921B0255C0883809F479C096
:100E6000803919F0803809F0B7CF80911B028032A9
:100E700008F06FC0E0911B0281E08E0F80931B028F
:100E80008091BB00F0E0E550FE4F80833BC0803B8B
:100E900039F0D0F4803A09F477C0883A09F09CCF51
:100EA00084E080931D021092FA011092F901F0E0A3
:100EB000E0E009958091F90181110FC081E08093F4
:100EC000F9011092D90109C0803C09F4A8CF883CEF
:100ED00009F4A5CF883B09F07FCFE091FA0181E0CA
:100EE0008E0F8093FA01F0E0E752FE4F80818093ED
:100EF000BB009091FA018091F90129C080914202D2
:100F00008093BB0085EC8093BC0066CF909141023A
:100F100080914002981758F5E091410281E08E0FD0
:100F200080934102F0E0E05EFD4F8081E9CFE091E7
:100F3000410281E08E0F809341028091BB00F0E07E
:100F4000E05EFD4F808390914102809140029817AE
:100F5000C8F285E8D8CFE091410281E08E0F8093FE
:100F600041028091BB00F0E0E05EFD4F8083809104
:100F70001F0281115ECF81E080931E0284EA80937C
:100F8000BC0010921D0228CF85EC8093BC0010920B
:100F90001D0280911B02803230F4E0911B02F0E0D0
:100FA000E550FE4F108260911B0270E08BEF91E0E4
:100FB000F0E0E0E0099510921B020ECF10921C02A7
:100FC00038CFE7E5F2E01382128288EE93E0A0E0EA
:100FD000B0E084839583A683B78384E091E0918316
:100FE000808385EC90E09587848784EC90E09787F8
:100FF000868780EC90E0918B808B81EC90E0938BE6
:10100000828B82EC90E0958B848B86EC90E0978BC2
:10101000868B118E128E138E148E0895789484B55B
:10102000826084BD84B5816084BD85B5826085BDE4
:1010300085B5816085BD80916E00816080936E0072
:101040001092810080918100826080938100809164
:101050008100816080938100809180008160809315
:1010600080008091B10084608093B1008091B000D5
:1010700081608093B00080917A00846080937A00D0
:1010800080917A00826080937A0080917A008160FA
:1010900080937A0080917A00806880937A00109221
:1010A000C100E0916702F091680282E08083E091E4
:1010B0006302F09164021082E0916502F091660291
:1010C00080E1808310926F02E0916B02F0916C02DC
:1010D00086E08083E0916902F0916A0280818061FC
:1010E0008083E0916902F0916A0280818860808348
:1010F000E0916902F0916A02808180688083E091CA
:101100006902F0916A0280818F7D80830E94B00223
:101110004B015C014AE0C42ED12CE12CF12C0E9441
:10112000B002681979098A099B09683E73408105F4
:101130009105A8F321E0C21AD108E108F10888EE70
:10114000880E83E0981EA11CB11CC114D104E104D7
:10115000F10429F78EE691E00E94F50361E086E054
:101160000E940D0261E089E00E940D0261E08AE0C8
:101170000E940D0261E085E00E940D0260E084E1C2
:101180000E940D0260E085E10E940D0283E891E07B
:101190000E94830385E10E949B02EC01BC01990F30
:1011A000880B990B97FF4FC00E94D403CE01D7FD47
:1011B000039695958795959587959093560280937C
:1011C000550283EA91E00E94830380915502909139
:1011D00056020E94030484E690E0909354028093A8
:1011E000530261E090E080E00E94290387EA91E0E9
:1011F0000E94F503C0E0D0E085E10E949B0297FDCC
:10120000039695958795959587959093560280932B
:10121000550261E083E090E00E942903809153022F
:10122000909154020196853691058CF49093540266
:1012300080935302209701F30E941E018823E1F25C
:101240000E940000D9CF4AE00E949003AFCF1092D5
:10125000540210925302109252020E945A05809139
:101260005202882339F010925102109250020E94CB
:101270007503E0CF80915002909151028A30910520
:1012800034F401969093510280935002D3CF109280
:101290005102109250020E945A056B017C0120E01D
:1012A00030E040E752E40E94920B1816DCF4E09024
:1012B0005502F0905602B7018AE00E943E02F09279
:1012C0004F02E0924E0260E085E00E94C101109260
:1012D0004D0210924C020E94750387EB91E00E9430
:1012E000F503A8CF20E030E040EA52ECC701B60198
:1012F0000E943A0A87FF19C0E0905502F09056020A
:10130000B7018AE00E943E02F0924F02E0924E0244
:1013100060E085E00E94C10110924D0210924C02E3
:101320000E94750383EC91E0DACF10924F02109285
:101330004E0220E030E040E352E4C701B6010E94D3
:101340003A0A87FF12C061E085E00E94C10161E0B6
:1013500081E090E00E94290380915502909156020D
:1013600090934D0280934C0265CF20E030E04CE337
:1013700052E4C701B6010E94920B87FD5BCF60E08B
:1013800081E090E00E94290310924D0210924C02DD
:1013900060E085E00E94C1014DCF5058BB27AA27CD
:1013A0000E94E5090C94580B0E944A0B38F00E94E9
:1013B000510B20F039F49F3F19F426F40C94470B9D
:1013C0000EF4E095E7FB0C94410BE92F0E94690BAA
:1013D00058F3BA17620773078407950720F079F46A
:1013E000A6F50C948B0B0EF4E0950B2EBA2FA02DC6
:1013F0000B01B90190010C01CA01A0011124FF27C2
:10140000591B99F0593F50F4503E68F11A16F040BC
:10141000A22F232F342F4427585FF3CF46953795BB
:101420002795A795F0405395C9F77EF41F16BA0B80
:10143000620B730B840BBAF09150A1F0FF0FBB1F2E
:10144000661F771F881FC2F70EC0BA0F621F731F77
:10145000841F48F4879577956795B795F7959E3FD4
:1014600008F0B0CF9395880F08F09927EE0F979565
:10147000879508950E941D0B08F481E008950E944D
:10148000530A0C94580B0E94510B58F00E944A0BBF
:1014900040F029F45F3F29F00C94410B51110C945A
:1014A0008C0B0C94470B0E94690B68F39923B1F3E2
:1014B000552391F3951B550BBB27AA27621773077A
:1014C000840738F09F5F5F4F220F331F441FAA1F0E
:1014D000A9F335D00E2E3AF0E0E832D091505040CA
:1014E000E695001CCAF72BD0FE2F29D0660F771F78
:1014F000881FBB1F261737074807AB07B0E809F05E
:10150000BB0B802DBF01FF2793585F4F3AF09E3FE2
:10151000510578F00C94410B0C948C0B5F3FE4F375
:10152000983ED4F3869577956795B795F7959F5F25
:10153000C9F7880F911D9695879597F90895E1E071
:10154000660F771F881FBB1F621773078407BA07D0
:1015500020F0621B730B840BBA0BEE1F88F7E0952B
:1015600008950E94710B88F09F5798F0B92F992722
:10157000B751B0F0E1F0660F771F881F991F1AF07E
:10158000BA95C9F714C0B13091F00E948B0BB1E04D
:1015900008950C948B0B672F782F8827B85F39F04C
:1015A000B93FCCF3869577956795B395D9F73EF417
:1015B00090958095709561957F4F8F4F9F4F0895BF
:1015C000E89409C097FB3EF49095809570956195DD
:1015D0007F4F8F4F9F4F9923A9F0F92F96E9BB2793
:1015E0009395F695879577956795B795F111F8CF0F
:1015F000FAF4BB0F11F460FF1BC06F5F7F4F8F4F7A
:101600009F4F16C0882311F096E911C0772321F06F
:101610009EE8872F762F05C0662371F096E8862F07
:1016200070E060E02AF09A95660F771F881FDAF75E
:10163000880F9695879597F90895990F0008550F8B
:10164000AA0BE0E8FEEF16161706E807F907C0F048
:1016500012161306E407F50798F0621B730B840B50
:10166000950B39F40A2661F0232B242B252B21F42A
:1016700008950A2609F4A140A6958FEF811D811DCA
:10168000089597F99F6780E870E060E008959FEF04
:1016900080EC089500240A94161617061806090609
:1016A000089500240A9412161306140605060895D8
:1016B000092E0394000C11F4882352F0BB0F40F460
:1016C000BF2B11F460FF04C06F5F7F4F8F4F9F4FA0
:1016D000089557FD9058440F551F59F05F3F71F022
:1016E0004795880F97FB991F61F09F3F79F0879589
:1016F0000895121613061406551FF2CF4695F1DF12
:1017000008C0161617061806991FF1CF86957105A1
:10171000610508940895E894BB2766277727CB01D5
:1017200097F908950E941D0B08F48FEF089516F0A5
:101730000C94590C0C94470B68940C94410B0E9428
:10174000710BA8F39923C1F3AEF3DF93CF931F93EB
:101750000F93FF92C92FDD2788232AF02197660F68
:10176000771F881FDAF720E030E040E85FEB9FE367
:10177000883920F0803E38F021968F770E94CE097C
:10178000E8E6F0E004C00E94CE09E5E9F0E00E943E
:10179000670C8B01BE01EC01FB2E6F57710975952B
:1017A000771F880B990B0E94E20A28E132E741E398
:1017B0005FE30E94FA0BAF2D9801AE01FF900F91ED
:1017C0001F91CF91DF910E94E5090C94580B0E9464
:1017D000FA0B0C94580B0E944A0B38F00E94510BE4
:1017E00020F0952311F00C94410B0C94470B11241D
:1017F0000C948C0B0E94690B70F3959FC1F3950FAD
:1018000050E0551F629FF001729FBB27F00DB11D84
:10181000639FAA27F00DB11DAA1F649F6627B00D14
:10182000A11D661F829F2227B00DA11D621F739FFD
:10183000B00DA11D621F839FA00D611D221F749F0B
:101840003327A00D611D231F849F600D211D822F52
:10185000762F6A2F11249F5750409AF0F1F0882379
:101860004AF0EE0FFF1FBB1F661F771F881F9150A6
:101870005040A9F79E3F510580F00C94410B0C9409
:101880008C0B5F3FE4F3983ED4F38695779567958C
:10189000B795F795E7959F5FC1F7FE2B880F911DD0
:1018A0009695879597F908950E941D0B880B990BC3
:1018B00008959F3F31F0915020F487957795679573
:1018C000B795880F911D9695879597F90895DF93A1
:1018D000CF931F930F93FF92EF92DF927B018C01C6
:1018E000689406C0DA2EEF010E94FA0BFE01E8941C
:1018F000A5912591359145915591A6F3EF010E944F
:10190000E509FE019701A801DA9469F7DF90EF90ED
:10191000FF900F911F91CF91DF910895A1E21A2EB0
:10192000AA1BBB1BFD010DC0AA1FBB1FEE1FFF1F83
:10193000A217B307E407F50720F0A21BB30BE40BD3
:10194000F50B661F771F881F991F1A9469F760951A
:101950007095809590959B01AC01BD01CF010895D4
:10196000EE0FFF1F0590F491E02D0994F894FFCF3E
:10197000000000005401B400E100A1011201F000D8
:1019800004010D0A006E616E00696E66006F766676
:10199000004E6F74206465746563742073656E73A4
:1019A0006F72212121212100616E616C6F67526588
:1019B000616428413029203A200043757272656EB7
:1019C0007454656D7065726174727565203A20009B
:1019D0004C65645F44696D6D6572203A2000536503
:1019E00074757020456E746572696E672E2E2E2197
:1019F0002121005365747570202D2D2044696D6D73
:101A000065722056616C75652F4272696768742033
:101A10003A2000202F2000536574757020456E64B5
:101A20002E2E2E2121210054656D702E204D4158FF
:101A300021210054656D702E204D494E212100005A
:103800000C94341C0C94511C0C94511C0C94511CA1
:103810000C94511C0C94511C0C94511C0C94511C74
:103820000C94511C0C94511C0C94511C0C94511C64
:103830000C94511C0C94511C0C94511C0C94511C54
:103840000C94511C0C94511C0C94511C0C94511C44
:103850000C94511C0C94511C0C94511C0C94511C34
:103860000C94511C0C94511C11241FBECFEFD4E0BA
:10387000DEBFCDBF11E0A0E0B1E0E4EAFFE302C0AB
:1038800005900D92A230B107D9F712E0A2E0B1E0A5
:1038900001C01D92AD30B107E1F70E94361D0C94B6
:1038A000D01F0C94001C982F9595959595959595FE
:1038B000905D8F708A307CF0282F295A8091C0004B
:1038C00085FFFCCF9093C6008091C00085FFFCCFA0
:1038D0002093C6000895282F205DF0CF982F809167
:1038E000C00085FFFCCF9093C6000895EF92FF9231
:1038F0000F931F93EE24FF2487018091C00087FD62
:1039000017C00894E11CF11C011D111D81E4E8168B
:1039100082E4F8068FE0080780E0180770F3E09172
:103920000401F091050109958091C00087FFE9CF5E
:103930008091C6001F910F91FF90EF9008950E9413
:10394000761C982F8091C00085FFFCCF9093C60015
:1039500091362CF490330CF09053892F089597559D
:10396000892F08951F930E949F1C182F0E949F1C4F
:103970001295107F810F1F910895882351F0982F81
:1039800091508091C00087FFFCCF8091C6009923A1
:10399000B9F708951F93182F0E94761C803249F0C2
:1039A000809103018F5F809303018530C1F01F91E7
:1039B00008958091C00085FFFCCF84E18093C6000C
:1039C0008091C00085FFFCCF1093C6008091C0009D
:1039D00085FFFCCF80E18093C6001F910895E091A0
:1039E0000401F091050109951F9108950E94761C2C
:1039F000803241F0809103018F5F80930301853015
:103A000081F008958091C00085FFFCCF84E1809310
:103A1000C6008091C00085FFFCCF80E18093C60086
:103A20000895E0910401F09105010995089510921F
:103A30000A028823D1F090E040E951E02D9A28EE67
:103A400033E0FA013197F1F721503040D1F72D984A
:103A500028EE33E0FA013197F1F721503040D1F7E9
:103A60009F5F981758F380930A0208953F924F92F0
:103A70005F926F927F928F929F92AF92BF92CF92FE
:103A8000DF92EF92FF920F931F93CF93DF9300008B
:103A900083E38093C4001092C50088E18093C10045
:103AA00086E08093C2005098589A259A81E00E943F
:103AB000171D44E1F42E3EE1E32E24E9D22E96E0D8
:103AC000C92E80E1B82EAA24A39401E4902E16E515
:103AD000812EB2E57B2EA0E26A2EF9E45F2EE3E5AB
:103AE0004E2E70E5372E0E94761C8033B1F1813363
:103AF00009F441C0803409F479C0813409F48CC0E0
:103B0000823471F1853409F47BC0803531F182351E
:103B100021F1813511F1853509F48DC0863509F41F
:103B20009DC0843609F4AEC0843709F41BC18537C3
:103B300009F485C1863709F47AC0809103018F5F4B
:103B400080930301853079F6E0910401F09105013D
:103B500009950E94761C803351F60E94F61CC3CF53
:103B600093E18091C00087FFFCCF8091C60099232C
:103B7000A1F39150F6CF0E94761C8032F1F680912D
:103B8000C00085FFFCCFF092C6008091C00085FF89
:103B9000FCCF9092C6008091C00085FFFCCF809240
:103BA000C6008091C00085FFFCCF7092C600809156
:103BB000C00085FFFCCF6092C6008091C00085FFE9
:103BC000FCCF5092C6008091C00085FFFCCF409290
:103BD000C6008091C00085FFFCCF3092C600809166
:103BE000C00085FFFCCFB092C6007DCF0E94761C3E
:103BF000863808F4B2CF0E94761C0E94F61C73CF60
:103C000094E08091C00087FFFCCF8091C60099238B
:103C100009F4A3CF9150F5CF0E94761C8038D1F0E3
:103C2000813861F1823809F499C0883979F080E0EF
:103C30000E94CA1C58CF0E94761C809306010E94E5
:103C4000761C809307010E94F61C4DCF83E00E94F2
:103C5000CA1C49CF82E00E94CA1C45CF0E94761C34
:103C6000803309F486C192E08091C00087FFFCCFC9
:103C70008091C6009923D9F29150F6CF81E00E943D
:103C8000CA1C31CF0E94761C809309020E94761CC8
:103C90008093080280910C028E7F80930C020E9418
:103CA000761C853429F480910C02816080930C028B
:103CB0008091080290910902892B89F000E010E0C0
:103CC0000E94761CF801E85FFE4F80830F5F1F4F54
:103CD00080910802909109020817190788F30E9441
:103CE000761C803209F029CF80910C0280FFD1C070
:103CF0004091060150910701440F551F5093070151
:103D000040930601A0910802B09109021097C9F0F2
:103D1000E8E0F1E09A01BD016E0F7F1FF999FECF37
:103D200032BD21BD819180BDFA9AF99A2F5F3F4F34
:103D3000E617F70799F74A0F5B1F50930701409367
:103D400006018091C00085FFFCCFF092C6008091F3
:103D5000C00085FFFCCFB092C600C5CE80E10E94B6
:103D6000CA1CC1CE0E94761C809309020E94761C58
:103D7000809308028091060190910701880F991F96
:103D800090930701809306010E94761C853409F404
:103D90007AC080910C028E7F80930C020E94761C68
:103DA000803209F0A0CE8091C00085FFFCCFF09258
:103DB000C600A0910802B09109021097B9F1809154
:103DC0000C02182F1170082F0270E0910601F0917B
:103DD00007019F012F5F3F4FB90140E050E01123E1
:103DE000B1F4002339F494918091C00085FFFCCF99
:103DF0009093C6004F5F5F4FCB010196F9014A17C0
:103E00005B0780F4BC012F5F3F4F112351F3F999F9
:103E1000FECFF2BDE1BDF89A90B58091C00085FF5C
:103E2000FCCFE6CF70930701609306018091C0003C
:103E300085FDD9CE8091C00085FFF8CFD4CE0E94F9
:103E4000761C803209F079CE8091C00085FFFCCFCE
:103E5000F092C6008091C00085FFFCCFE092C600C2
:103E60008091C00085FFFCCFD092C6008091C00039
:103E700085FFFCCFC092C6008091C00085FFFCCFBB
:103E8000B092C60030CE80910C02816080930C020B
:103E900085CF809107018823880F880B8A21809322
:103EA0000B028091060190910701880F991F909352
:103EB0000701809306018091080280FF09C080916C
:103EC00008029091090201969093090280930802DA
:103ED000F894F999FECF1127E0910601F0910701BE
:103EE000C8E0D1E08091080290910902103091F46D
:103EF0000091570001700130D9F303E0009357009F
:103F0000E8950091570001700130D9F301E1009369
:103F10005700E89509901990009157000170013001
:103F2000D9F301E000935700E8951395103498F009
:103F300011270091570001700130D9F305E000937B
:103F40005700E8950091570001700130D9F301E165
:103F500000935700E8953296029709F0C7CF1030CA
:103F600011F00296E5CF11248091C00085FFE9CEC3
:103F7000ECCE0E94761C0E94761C182F0E94761CA4
:103F8000112351F0113021F086E00E94CA1CABCD04
:103F900084E90E94CA1CA7CD8EE10E94CA1CA3CD51
:043FA000F894FFCFC3
:023FA40080009B
:0400000300003800C1
:00000001FF