:100000000C9463000C948B000C948B000C948B006C
:100010000C94E0080C948B000C94EA080C948B0070
:100020000C948B000C948B000C948B000C94D208D5
:100030000C948B000C948B000C948B000C948B0014
:100040000C946D070C948B000C943B070C941507D3
:100050000C948B000C948B000C948B000C948B00F4
:100060000C94B7070C948B000000000800020100FC
:100070000003040700000000000000000000000072
:10008000240027002A000000000023002600290089
:10009000010204081020408001020408102001021F
:1000A0000408102000000000250028002B00040494
:1000B0000404040404040202020202020303030310
:1000C0000303F4082E0D11241FBECFEFD4E0DEBFD2
:1000D000CDBF12E0A0E0B1E0EAE4F2E202C0059098
:1000E0000D92A03FB107D9F724E0A0EFB2E001C024
:1000F0001D92AF35B207E1F710E0C2E6D0E004C0D0
:100100002197FE010E94ED0FC136D107C9F70E9469
:100110008B090C9418110C940000AF92BF92CF92EF
:10012000DF92EF92FF920F931F93CF93DF936C01B7
:100130007B018B01040F151FEB015E01AE18BF0898
:10014000C017D10759F06991D601ED91FC9101904A
:10015000F081E02DC6010995892B79F7C501DF9162
:10016000CF911F910F91FF90EF90DF90CF90BF90B4
:10017000AF900895FC01538D448D252F30E0842FDE
:1001800090E0821B930B541710F0CF9608950197BF
:100190000895FC01918D828D981761F0A28DAE0FAC
:1001A000BF2FB11D5D968C91928D9F5F9F73928F33
:1001B00090E008958FEF9FEF0895FC01918D828D5F
:1001C000981731F0828DE80FF11D858D90E008952C
:1001D0008FEF9FEF0895FC01918D228D892F90E084
:1001E000805C9F4F821B91098F739927089582EA43
:1001F00093E00E94EB0021E0892B09F420E0822F9C
:10020000089580E090E0892B29F00E94F700811189
:100210000C9400000895FC01A48DA80FB92FB11D06
:10022000A35ABF4F2C91848D90E001968F7399272C
:10023000848FA689B7892C93A089B1898C9183700A
:1002400080648C93938D848D981306C00288F38903
:10025000E02D80818F7D80830895EF92FF920F9330
:100260001F93CF93DF93EC0181E0888F9B8D8C8D62
:1002700098131AC0E889F989808185FF15C09FB756
:10028000F894EE89FF896083E889F9898081837019
:10029000806480839FBF81E090E0DF91CF911F91C8
:1002A0000F91FF90EF900895F62E0B8D10E00F5FE9
:1002B0001F4F0F731127E02E8C8D8E110CC00FB6BF
:1002C00007FCFACFE889F989808185FFF5CFCE0157
:1002D0000E940B01F1CFEB8DEC0FFD2FF11DE35AC6
:1002E000FF4FF0829FB7F8940B8FEA89FB898081DA
:1002F0008062CFCFCF93DF93EC01888D8823B9F054
:10030000AA89BB89E889F9898C9185FD03C0808120
:1003100086FD0DC00FB607FCF7CF8C9185FFF2CF9D
:10032000808185FFEDCFCE010E940B01E9CFDF91E7
:10033000CF91089590E0FC01E859FF4F2491FC0112
:10034000E057FF4F3491FC01E255FF4FE491EE235B
:10035000C9F0222339F0233001F1A8F4213019F13A
:10036000223029F1F0E0EE0FFF1FEC55FF4FA59171
:10037000B4918FB7F894EC91611126C030953E236B
:100380003C938FBF08952730A9F02830C9F024305E
:1003900049F7809180008F7D03C0809180008F7726
:1003A00080938000DFCF84B58F7784BDDBCF84B5A9
:1003B0008F7DFBCF8091B0008F778093B000D2CF3C
:1003C0008091B0008F7DF9CF3E2BDACF80913F0432
:1003D00090914004892B41F0E0914104F091420456
:1003E000908181819CBD8DBD80914A048F3F19F021
:1003F00060E00C949A01089580914A048F3F19F0AF
:1004000061E00C949A010895CF93DF9390E0FC0192
:10041000E057FF4F249182559F4FFC018491882320
:10042000D1F090E0880F991FFC01E458FF4FA5918F
:10043000B491FC01EC55FF4FC591D49161110EC0F0
:100440009FB7F8948C91E22FE0958E238C932881AE
:10045000E223E8839FBFDF91CF9108958FB7F8948F
:10046000EC91E22BEC938FBFF6CF1F93CF93DF93EA
:10047000182FEB0161E00E940402209739F460E03C
:10048000812FDF91CF911F910C949A01CF3FD1051D
:1004900011F461E0F5CFE12FF0E0E859FF4FE4916E
:1004A000E33031F140F4E130B1F0E230E1F0C03856
:1004B000D1057CF7E4CFE73029F1E83059F1E43099
:1004C000B1F780918000806280938000D0938B0090
:1004D000C0938A0004C084B5806884BDC7BDDF9125
:1004E000CF911F91089584B5806284BDC8BDF7CFB8
:1004F00080918000806880938000D0938900C093B1
:100500008800EDCF8091B00080688093B000C093E8
:10051000B300E5CF8091B00080628093B000C093BB
:10052000B400DDCF8E3008F08E50877080648093E9
:100530007C0080917A00806480937A0080917A00B8
:1005400086FDFCCF809178009091790008958330EA
:10055000910528F0880F991F04970197F1F70895E6
:10056000CF92DF92EF92FF920F931F93CF93DF937F
:1005700020913F0430914004232B79F08EBD0DB4BF
:1005800007FEFDCFDEB48D2DDF91CF911F910F912E
:10059000FF90EF90DF90CF90089520914704309125
:1005A0004804C1E0232B09F0C0E8CC24C394982F61
:1005B0009C2309F0C12CD82F20914304309144048E
:1005C000409145045091460460E271EA87E090E072
:1005D0000E94CB0F122FDD2E00E0E22EF12C112312
:1005E00019F0C7010E94A70280914904877F09F092
:1005F00054C080914C048F3FA1F09D2F9C2381E03B
:1006000009F480E08C1569F0E0914E04F0914F04FC
:10061000809156049923D9F19081892B8083CC2431
:10062000C394E0915004F09151048081909158045A
:10063000892B8083112319F0C7010E94A7028091A2
:100640004D048F3F51F0E0915204F09153048081AA
:1006500090915704892309F00C2BE0915004F091FC
:1006600051049081809158048095892380838091E2
:100670004D048F3F09F0D02E80914704909148049B
:10068000892B09F047C0CC0FC111A9CF7CCF908135
:10069000809589238083C12CC4CFE0915004F091D0
:1006A0005104808190915804892B8083112319F083
:1006B000C7010E94A70280914C048F3F61F0E09136
:1006C0004E04F0914F04809156049D2F9C23F1F02D
:1006D0009081892B8083E0915004F09151049081A6
:1006E0008091580480958923808380914D048F3FA9
:1006F00009F4BDCFE0915204F091530480819091B0
:100700005704892309F4B3CF0C2BB1CF9081809586
:100710008923E0CFC695B8CFCF93C82F0E94E601BA
:1007200080E80E94B0028C2F0E94B002CF910C94FE
:10073000FC01EF92FF920F931F93CF93DF93EC0195
:100740007B018A010E94E60188810E94B002E701D4
:100750000E0D1F1DC017D10729F08FEF0E94B002A8
:100760008993F8CF0E94FC0181E0DF91CF911F9126
:100770000F91FF90EF900895CF93DF9300D0CDB706
:10078000DEB71A82898341E050E0BE016E5F7F4F81
:10079000CE0101960E9499038A810F900F90DF91FC
:1007A000CF91089580E00E94BC03837D82600C9409
:1007B0008C03CF93C82F80E00E94BC03CC2321F090
:1007C0008068CF910C948C038F77FBCF3FB7F89460
:1007D0008091660390916703A0916803B0916903CB
:1007E00026B5A89B05C02F3F19F00196A11DB11D8C
:1007F0003FBFBA2FA92F982F8827BC01CD01620FC8
:10080000711D811D911D43E0660F771F881F991F81
:100810004A95D1F708958F929F92AF92BF92CF924F
:10082000DF92EF92FF924B015C010E94E6036B01A5
:100830007C010E94E6036C197D098E099F09683EC0
:10084000734081059105A8F321E0821A9108A1085F
:10085000B10888EEC80E83E0D81EE11CF11C81149B
:100860009104A104B10429F7FF90EF90DF90CF909D
:10087000BF90AF909F908F9008950F931F93CF9349
:10088000DF9300D01F92CDB7DEB70E94D20381E084
:100890000E94D9036AE070E080E090E00E940B04BF
:1008A00080E00E94BC0380620E948C0361E470E0DF
:1008B00080E090E00E940B0419821A8281E08B8311
:1008C00042E050E0BE016F5F7F4FCE0103960E9471
:1008D000990309811A8110270127102780E00E94BF
:1008E000D903C801969587950F900F900F90DF91CF
:1008F000CF911F910F91089520911703260F332751
:10090000331F21323105ECF420913B03FC0190E0D0
:1009100080E0243069F082E00895A09117032191CE
:10092000AC0149505D4FA40FB52FB11D2C9301961A
:10093000861798F380911703680F6093170380E080
:10094000089581E0089508958FEF9FEF08958FEF48
:100950009FEF08958091F00290E091958195910923
:100960000895CF93DF93CB01EA01642F0E947C04AA
:10097000CE01DF91CF910895CF93DF931F92CDB732
:10098000DEB7698361E0CE0101960E947C0481E0BC
:1009900090E00F90DF91CF91089590E080E008956E
:1009A000EF92FF921F93CF93DF937C01162FC0919C
:1009B000A003D091A103BE0186E00E94350281E030
:1009C000E816F10409F182E0E816F10449F180919A
:1009D0006B0390916C0370E060E0892B09F0BE011D
:1009E00089E00E94350280916D0390916E0370E062
:1009F00060E0892B09F0BE018AE0DF91CF911F9161
:100A0000FF90EF900C943502112329F0D0936C03E2
:100A1000C0936B03DCCF10926C0310926B03D7CFA3
:100A2000112329F0D0936E03C0936D03D0CF1092A1
:100A30006E0310926D03CBCFFC0101900020E9F70B
:100A40003197AF01481B590BBC0182EA93E00C942B
:100A50008D008F929F92AF92BF920F931F93CF936F
:100A6000DF93CDB7DEB7A1970FB6F894DEBF0FBE08
:100A7000CDBF19A2423008F44AE08E010F5D1F4F2E
:100A8000842E912CB12CA12CA50194010E94CB0F96
:100A9000E62FB901CA01EA30F4F4E05DD801EE9323
:100AA0008D01232B242B252B79F790E080E01097E4
:100AB00019F0CD010E941C05A1960FB6F894DEBF77
:100AC0000FBECDBFDF91CF911F910F91BF90AF901F
:100AD0009F908F900895E95CE1CFCF92DF92EF92E3
:100AE000FF92CF93DF936B017C016DE282EA93E08A
:100AF0000E942D01EC0166277727CB016C197D0937
:100B00008E099F094AE00E9429058C0F9D1FDF91E5
:100B1000CF91FF90EF90DF90CF900895CF93DF9328
:100B20000E941C05EC0188E191E00E941C058C0FDD
:100B30009D1FDF91CF9108950C941C054F925F92F9
:100B40006F927F928F929F92AF92BF92CF92DF92DD
:100B5000EF92FF920F931F93CF936B017C01742E42
:100B6000AC019B010E94B10F882399F08BE191E0C9
:100B7000CF911F910F91FF90EF90DF90CF90BF909A
:100B8000AF909F908F907F906F905F904F900C945C
:100B90001C0546015701E894B7F82FEF3FEF4FE7E8
:100BA0005FE7C501B4010E94B10F81110DC02FEFA5
:100BB0003FEF4FE75FE7C501B4010E94A10D181692
:100BC0001CF48FE191E0D4CF2FEF3FEF4FE75FE4CC
:100BD000C701B6010E94F90E18161CF483E291E0D9
:100BE000C7CF2FEF3FEF4FE75FECC701B6010E9481
:100BF000A10D87FDF3CF20E030E0A901C701B601C8
:100C00000E94A10D10E000E087FF0AC06DE282EAB9
:100C100093E00E942D018C01F7FAF094F7F8F0941C
:100C2000C0E060E070E080E09FE37C1641F020E0EF
:100C300030E040E251E40E94A60DCF5FF6CFA7015D
:100C400096010E94350D2B013C010E94180E4B01AC
:100C50005C014AE00E9429057C01E00EF11ECC23D4
:100C6000C1F1C501B4010E94470E9B01AC01C30153
:100C7000B2010E94340D4B015C016EE282EA93E006
:100C80000E942D01E80EF91EC15018F120E030E05D
:100C900040E251E4C501B4010E94FE0E2B013C016B
:100CA0000E94180E4B01B12CA12C4AE0C501B401E1
:100CB0000E942905E80EF91EC501B4010E94470EE5
:100CC0009B01AC01C301B2010E94340D4B015C01D8
:100CD000DBCFC701CF911F910F91FF90EF90DF9075
:100CE000CF90BF90AF909F908F907F906F905F90CC
:100CF0004F900895CF93DF930E949E05EC0188E109
:100D000091E00E941C058C0F9D1FDF91CF910895EB
:100D1000CF93DF93BC01990F880B990B97FF0CC001
:100D20000E946D05EC0188E191E00E941C058C0F8A
:100D30009D1FDF91CF9108954AE00E942905F2CFCF
:100D40001F93CF93DF9385ED8093BC008091F302D6
:100D50009091F402A091F502B091F6020796A11DC0
:100D6000B11D23E0B695A795979587952A95D1F75C
:100D70002091BC0024FD03C010923B0352C040915F
:100D8000F3025091F4026091F5027091F602452B46
:100D9000462B472B69F30097A105B10541F02AE1E5
:100DA0002A95F1F700C00197A109B109E1CF80911F
:100DB000F202C1E0C093F102882399F1D091B8000A
:100DC0001091BA008091BC008A7B8093BC0060E0E7
:100DD00082E10E949A0160E083E10E949A011092F0
:100DE0003B03C0933D0310923C0361E082E10E940B
:100DF0009A0161E083E10E949A018091B9008E7F9F
:100E00008093B9008091B9008D7F8093B90080E212
:100E10008093B80085E48093BC001093BA00D0930F
:100E2000B800DF91CF911F9108951F920F920FB6D6
:100E30000F9211242F933F934F935F936F937F9360
:100E40008F939F93AF93BF93EF93FF9382EA93E0C7
:100E50000E940B01FF91EF91BF91AF919F918F91F4
:100E60007F916F915F914F913F912F910F900FBEA6
:100E70000F901F9018951F920F920FB60F9211248A
:100E80002F938F939F93EF93FF93E091B203F09191
:100E9000B3038081E091B803F091B90382FD1BC0D8
:100EA00090818091BB038F5F8F732091BC03821769
:100EB00041F0E091BB03F0E0EE55FC4F958F80933D
:100EC000BB03FF91EF919F918F912F910F900FBED8
:100ED0000F901F9018958081F4CF1F920F920FB63C
:100EE0000F9211242F933F938F939F93AF93BF93B0
:100EF0008091620390916303A0916403B0916503B4
:100F00003091610326E0230F2D3758F50296A11D7D
:100F1000B11D209361038093620390936303A093B8
:100F20006403B09365038091660390916703A09179
:100F30006803B09169030196A11DB11D80936603FA
:100F400090936703A0936803B0936903BF91AF9137
:100F50009F918F913F912F910F900FBE0F901F90F7
:100F6000189529E8230F0396A11DB11DD2CF1F921A
:100F70000F920FB60F9211242F933F934F935F93CD
:100F80006F937F938F939F93AF93BF93EF93FF9351
:100F90008091B900887F803609F44AC0F0F5883224
:100FA00009F4A5C018F5803109F499C0B8F4882374
:100FB00009F4F5C0883009F492C0FF91EF91BF9118
:100FC000AF919F918F917F916F915F914F913F91E1
:100FD0002F910F900FBE0F901F901895883109F434
:100FE00086C0803251F780933A0314C0803409F4EC
:100FF0009BC040F48033B9F38833F9F680933A0309
:1010000085ECAEC0803509F483C0883509F494C0FE
:10101000883499F60E94A006D0CF883909F48AC096
:1010200038F5883729F050F4883611F0803729F6E2
:1010300083E080933B031092390355C0883809F44C
:1010400079C0803919F0803809F0B7CF8091390321
:10105000803208F06FC0E091390381E08E0F8093F9
:1010600039038091BB00F0E0E75EFC4F80833BC01A
:10107000803B39F0D0F4803A09F477C0883A09F01F
:101080009CCF84E080933B031092180310921703C7
:10109000F0E0E0E009958091170381110FC081E035
:1010A000809317031092F70209C0803C09F4A8CF7F
:1010B000883C09F4A5CF883B09F07FCFE091180365
:1010C00081E08E0F80931803F0E0E950FD4F80819E
:1010D0008093BB00909118038091170329C08091E1
:1010E00060038093BB0085EC8093BC0066CF909139
:1010F0005F0380915E03981758F5E0915F0381E0EC
:101100008E0F80935F03F0E0E25CFC4F8081E9CFBB
:10111000E0915F0381E08E0F80935F038091BB00BD
:10112000F0E0E25CFC4F808390915F0380915E036E
:101130009817C8F285E8D8CFE0915F0381E08E0F61
:1011400080935F038091BB00F0E0E25CFC4F808302
:1011500080913D0381115ECF81E080933C0384EA5E
:101160008093BC0010923B0328CF85EC8093BC0099
:1011700010923B0380913903803230F4E0913903BF
:10118000F0E0E75EFC4F10826091390370E089E186
:1011900093E0F0E0E0E00995109239030ECF109251
:1011A0003A0338CF1F920F920FB60F92112410926C
:1011B0008500109284000F900FBE0F901F9018951D
:1011C0001F920F920FB60F9211240F900FBE0F9027
:1011D0001F9018951F920F920FB60F9211240F9027
:1011E0000FBE0F901F901895CF93DF93E2EAF3E0C4
:1011F0001382128288EE93E0A0E0B0E084839583AE
:10120000A683B7838AE091E09183808385EC90E0A8
:101210009587848784EC90E09787868780EC90E0C0
:10122000918B808B81EC90E0938B828B82EC90E0B1
:10123000958B848B86EC90E0978B868B118E128E2B
:10124000138E148ECFE3D4E081E18B8780E18C870D
:101250008FE08E878EE08D87EFEBF0E0E491F0E099
:10126000EE0FFF1FEC55FF4F859194919E8B8D8B58
:10127000E1EAF0E0E491EA8FECEBF0E0E491F0E0F9
:10128000EE0FFF1FEC55FF4F85919491988B8F8740
:10129000EEE9F0E0E491EF8BEDEBF0E0E491F0E0CB
:1012A000EE0FFF1FEA57FF4F859194919C8B8B8B1C
:1012B000EFE9F0E0E491E88FEEEBF0E0E491F0E0AC
:1012C000EE0FFF1FEC55FF4F859194919A8B898B00
:1012D000E0EAF0E0E491E98F80E492E4AFE0B0E08E
:1012E0008C839D83AE83BF8381E090E0998788875C
:1012F00084E08A871B8E82E090E00E94F30F25E550
:10130000FC01208321E021839B838A831982188238
:10131000DF91CF910895789484B5826084BD84B5BF
:10132000816084BD85B5826085BD85B5816085BDE0
:1013300080916E00816080936E0010928100809198
:101340008100826080938100809181008160809320
:101350008100809180008160809380008091B10045
:1013600084608093B1008091B00081608093B00070
:1013700080917A00846080937A0080917A00826004
:1013800080937A0080917A008E7F80937A0080919A
:101390007A00806880937A001092C100E091B203D5
:1013A000F091B30382E08083E091AE03F091AF034C
:1013B0001082E091B003F091B10388E08083109235
:1013C000BA03E091B603F091B70386E08083E09121
:1013D000B403F091B503808180618083E091B40310
:1013E000F091B503808188608083E091B403F0912F
:1013F000B503808180688083E091B403F091B503E8
:1014000080818F7D80836AE070E080E090E00E94C0
:101410000B0487E291E00E948E0561E086E00E9465
:10142000040261E089E00E94040261E08AE00E9417
:10143000040261E085E00E94040260E084E10E9411
:10144000040260E085E10E94040280914A048F3F1B
:1014500041F061E00E94040261E080914A040E9430
:101460009A0180913F0490914004892B09F4A8C00F
:10147000CFB7F89480916A03811127C0E8EBF0E0C0
:101480008491EAE9F0E09491E82FF0E0EE0FFF1F7D
:10149000E458FF4FA591B491EC91E92321F461E068
:1014A0008AE00E949A0161E08AE00E9404028CB501
:1014B00080618CBD8CB580648CBD61E08DE00E9444
:1014C000040261E08BE00E94040280916A038F5F56
:1014D00080936A03CFBF81E080935A0480E00E942A
:1014E000BC038F7E0E948C0380E00E94D90380E0C1
:1014F0000E94BC038F7B0E948C030E94D2038CE36A
:1015000091E00E949C0585E10E949202EC01BC01E1
:10151000990F880B990B97FF77C00E946D05CE013C
:10152000D7FD039695958795959587959093A103FB
:101530008093A0038CE591E00E949C058091A0031C
:101540009091A1030E94880661E090E080E00E94F3
:10155000D00480E691E00E948E05C7E9D3E000E068
:1015600010E085E10E9492027C0197FD039695951B
:101570008795959587959093A1038093A00361E04B
:1015800083E090E00E94D00480919E0390919F039D
:1015900084369105ECF5019690939F0380939E030A
:1015A0006AE070E080E090E00E940B0401151105F4
:1015B000C1F20E94F7008823A1F20E940000D1CF5F
:1015C00061E080914B040E940402809149048B7F6A
:1015D00060E009F061E080914B040E949A018091E3
:1015E0004C048F3F41F061E00E94040261E0809171
:1015F0004C040E949A0180914D048F3F09F46BCFF7
:1016000060E00E94040267CF4AE00E94290587CF6C
:1016100010929F0310929E0380E791E00E949C0528
:10162000C7010E9488068FE791E00E949C0584E133
:101630000E9492020E94880610929D030E943D041F
:101640006C018DE991E00E949C05F12CE12C4AE0AF
:10165000C701B6010E94290588E191E00E941C059E
:10166000C701B6010E94470E20E030E040E058E399
:101670000E94FE0E6B017C0189EA91E00E949C05AC
:1016800048E050E0C701B6010E947A0682EB91E083
:101690000E949C0520E030E646E855E4C701B6010B
:1016A0000E94FE0E48E050E00E947A0680EC91E035
:1016B0000E949C050E943D04BC0190E080E00E94D5
:1016C000470E20E030E040E058E30E94FE0E20E0AC
:1016D00030E646E855E40E94FE0E2AE83DE948E37C
:1016E00052E40E94350D6B017C0123EF3DEB4EE18E
:1016F00051EB0E94FE0E26E133E843E957E30E94D6
:10170000350D0E94710F22E331E140E85BE30E9456
:10171000340D2FE735E04BE955EB0E94A60D4B0148
:101720005C0120E030E0A9010E94F90E87FF70C043
:1017300020E030E04AE754E4C701B6010E94A60D5C
:1017400020E030E048EC52E40E94FE0E6B017C0188
:101750002BE532E44EE050E40E94FE0E2FE135E02E
:1017600042E753E40E94340D2B013C01A70196018E
:10177000C701B6010E94FE0E4B015C0124E338E76D
:1017800049E25BE30E94FE0EA30192010E94350D27
:101790002B013C01A5019401C701B6010E94FE0E78
:1017A0004B015C0126E03FEE41EA56E30E94FE0E4B
:1017B0009B01AC01C301B2010E94340D2B013C011D
:1017C000A5019401C701B6010E94FE0E4B015C0108
:1017D00023E137E142EF52E30E94FE0E9B01AC0190
:1017E000C301B2010E94340D2B013C01A5019401FB
:1017F000C701B6010E94FE0E2BE339E947E25FE222
:101800000E94FE0EA30192010E94350D4B015C0166
:1018100042E050E0C501B4010E947A0687E00E94D0
:10182000BC03F82E8823C1F18FEC91E00E949C0547
:101830006F2D70E090E080E040E10E94290588E192
:1018400091E00E941C0581E080939D03F7FE04C097
:1018500088ED91E00E948E05F6FE04C08BEE91E0CB
:101860000E948E05F5FE04C08DEF91E00E948E056A
:10187000F4FE04C082E192E00E948E05F3FE04C0F3
:1018800085E392E00E948E05F2FE04C088E592E0B6
:101890000E948E050E94D20380919D03882309F443
:1018A00077C010929C0310929B0361E082E090E06D
:1018B0000E94D00460E081E090E00E94D00460E0EB
:1018C00085E00E949A018BE692E00E949C0542E02E
:1018D000C501B4010E949E0581E992E00E948E0537
:1018E00080919B0390919C030A970CF459CE83E955
:1018F00092E00E949C0580919B0390919C030E9422
:10190000880610929C0310929B038FE6E82E83E0DA
:10191000F82E60E070E0CB01F70121913191419107
:1019200051917F010E94350DCE15DF05A9F720E00A
:1019300030E040E251E40E94A60D6B017C0187EA91
:1019400092E00E949C0542E050E0C701B6010E946F
:101950007A0620E030E04AEA52E4C701B6010E946C
:10196000F90E181664F58091A0039091A10390934D
:101970006E0380936D0360E085E00E949A011092EF
:101980006C0310926B038CEB92E00E948E0508CEE4
:1019900080919B0390919C039C012F5F3F4F30935C
:1019A0009C0320939B03880F991F880F991FFC01AC
:1019B000E159FC4F80829182A282B38291CF20E0D4
:1019C00030E040E752ECC701B6010E94A10D87FF4D
:1019D00013C08091A0039091A10390936E03809314
:1019E0006D0360E085E00E949A0110926C031092F2
:1019F0006B0388EC92E0C9CF10926E0310926D03D6
:101A000020E030E040E752E4C701B6010E94A10D9A
:101A100087FF0FC061E085E00E949A018091A003DA
:101A20009091A10390936C0380936B0384ED92E0FB
:101A3000ACCF20E030E04CE852E4C701B6010E9490
:101A4000F90E87FDADCD10926C0310926B0360E030
:101A500085E00E949A0182EE92E097CF8091410446
:101A6000909142040C948F105058BB27AA270E94D3
:101A70004C0D0C94BF0E0E94B10E38F00E94B80EAF
:101A800020F039F49F3F19F426F40C94AE0E0EF4B6
:101A9000E095E7FB0C94A80EE92F0E94D00E58F3B6
:101AA000BA17620773078407950720F079F4A6F543
:101AB0000C94F20E0EF4E0950B2EBA2FA02D0B0114
:101AC000B90190010C01CA01A0011124FF27591B83
:101AD00099F0593F50F4503E68F11A16F040A22F89
:101AE000232F342F4427585FF3CF469537952795FA
:101AF000A795F0405395C9F77EF41F16BA0B620BF9
:101B0000730B840BBAF09150A1F0FF0FBB1F661F3F
:101B1000771F881FC2F70EC0BA0F621F731F841F82
:101B200048F4879577956795B795F7959E3F08F0A8
:101B3000B0CF9395880F08F09927EE0F979587956A
:101B400008950E94840E08F481E008950E94BA0D61
:101B50000C94BF0E0E94B80E58F00E94B10E40F0D7
:101B600029F45F3F29F00C94A80E51110C94F30E48
:101B70000C94AE0E0E94D00E68F39923B1F3552356
:101B800091F3951B550BBB27AA2762177307840790
:101B900038F09F5F5F4F220F331F441FAA1FA9F326
:101BA00035D00E2E3AF0E0E832D091505040E69514
:101BB000001CCAF72BD0FE2F29D0660F771F881F75
:101BC000BB1F261737074807AB07B0E809F0BB0B68
:101BD000802DBF01FF2793585F4F3AF09E3F51057C
:101BE00078F00C94A80E0C94F30E5F3FE4F3983E4B
:101BF000D4F3869577956795B795F7959F5FC9F765
:101C0000880F911D9695879597F90895E1E0660FE5
:101C1000771F881FBB1F621773078407BA0720F05E
:101C2000621B730B840BBA0BEE1F88F7E0950895C7
:101C30000E94D80E88F09F5798F0B92F9927B75176
:101C4000B0F0E1F0660F771F881F991F1AF0BA9560
:101C5000C9F714C0B13091F00E94F20EB1E00895BE
:101C60000C94F20E672F782F8827B85F39F0B93FB0
:101C7000CCF3869577956795B395D9F73EF4909513
:101C80008095709561957F4F8F4F9F4F0895E89491
:101C900009C097FB3EF490958095709561957F4FB4
:101CA0008F4F9F4F9923A9F0F92F96E9BB27939562
:101CB000F695879577956795B795F111F8CFFAF472
:101CC000BB0F11F460FF1BC06F5F7F4F8F4F9F4FA3
:101CD00016C0882311F096E911C0772321F09EE801
:101CE000872F762F05C0662371F096E8862F70E067
:101CF00060E02AF09A95660F771F881FDAF7880F41
:101D00009695879597F90895990F0008550FAA0B96
:101D1000E0E8FEEF16161706E807F907C0F01216FE
:101D20001306E407F50798F0621B730B840B950B01
:101D300039F40A2661F0232B242B252B21F4089556
:101D40000A2609F4A140A6958FEF811D811D0895F3
:101D500097F99F6780E870E060E008959FEF80EC5E
:101D6000089500240A941616170618060906089501
:101D700000240A9412161306140605060895092E67
:101D80000394000C11F4882352F0BB0F40F4BF2BD6
:101D900011F460FF04C06F5F7F4F8F4F9F4F089516
:101DA00057FD9058440F551F59F05F3F71F047950C
:101DB000880F97FB991F61F09F3F79F087950895F1
:101DC000121613061406551FF2CF4695F1DF08C010
:101DD000161617061806991FF1CF8695710561052D
:101DE00008940895E894BB2766277727CB0197F9D5
:101DF00008950E94840E08F48FEF08950E94110F39
:101E00000C94BF0E0E94B10E38F00E94B80E20F064
:101E1000952311F00C94A80E0C94AE0E11240C9482
:101E2000F30E0E94D00E70F3959FC1F3950F50E012
:101E3000551F629FF001729FBB27F00DB11D639F7C
:101E4000AA27F00DB11DAA1F649F6627B00DA11D22
:101E5000661F829F2227B00DA11D621F739FB00DC8
:101E6000A11D621F839FA00D611D221F749F332738
:101E7000A00D611D231F849F600D211D822F762FD1
:101E80006A2F11249F5750409AF0F1F088234AF0AE
:101E9000EE0FFF1FBB1F661F771F881F915050401A
:101EA000A9F79E3F510580F00C94A80E0C94F30EF8
:101EB0005F3FE4F3983ED4F3869577956795B795A1
:101EC000F795E7959F5FC1F7FE2B880F911D9695BB
:101ED000879597F9089519F416F40C94AE0E0C94A6
:101EE000B60F0E94D80EB8F39923C9F3B6F39F57E3
:101EF000550B87FF0E94C40F0024A0E640EA900122
:101F000080585695979528F4805C660F771F881F38
:101F100020F026173707480730F4621B730B840B39
:101F2000202931294A2BA69517940794202531257D
:101F30004A2758F7660F771F881F20F026173707A4
:101F4000480730F4620B730B840B200D311D411DCB
:101F5000A09581F7B901842F9158880F96958795A0
:101F600008950E94840E880B990B08959F3F31F0CD
:101F7000915020F4879577956795B795880F911DB7
:101F80009695879597F9089591505040660F771F61
:101F9000881FD2F70895A1E21A2EAA1BBB1BFD01D0
:101FA0000DC0AA1FBB1FEE1FFF1FA217B307E40738
:101FB000F50720F0A21BB30BE40BF50B661F771F90
:101FC000881F991F1A9469F7609570958095909570
:101FD0009B01AC01BD01CF010895EE0FFF1F0590DD
:101FE000F491E02D09940F931F93CF93DF938230E8
:101FF000910510F482E090E0E0915D04F0915E04C0
:1020000030E020E0B0E0A0E0309799F421153105F0
:1020100009F44AC0281B390B24303105D8F58A81D0
:102020009B816115710589F1FB0193838283FE0118
:1020300011C0408151810281138148175907E0F096
:102040004817590799F4109761F012960C9312975C
:1020500013961C933296CF01DF91CF911F910F9170
:10206000089500935D0410935E04F4CF21153105AB
:1020700051F04217530738F0A901DB019A01BD0165
:10208000DF01F801C1CFEF01F9CF90935E04809397
:102090005D04CDCFFE01E20FF31F81939193225097
:1020A000310939832883D7CF20915B0430915C04B8
:1020B000232B41F4209102013091030130935C0401
:1020C00020935B042091000130910101211531051D
:1020D00041F42DB73EB74091040150910501241BF6
:1020E000350BE0915B04F0915C04E217F307A0F478
:1020F0002E1B3F0B2817390778F0AC014E5F5F4F5E
:102100002417350748F04E0F5F1F50935C0440932F
:102110005B04819391939FCFF0E0E0E09CCFCF935D
:10212000DF930097E9F0FC01329713821282A091AD
:102130005D04B0915E04ED0130E020E01097A1F461
:1021400020813181820F931F20915B0430915C04C8
:102150002817390709F061C0F0935C04E0935B0431
:10216000DF91CF910895EA01CE17DF07E8F54A81A4
:102170005B819E0141155105B1F7E901FB83EA83BB
:1021800049915991C40FD51FEC17FD0761F4808167
:1021900091810296840F951FE9019983888382813A
:1021A00093819B838A83F0E0E0E012968D919C916D
:1021B00013970097B9F52D913C911197CD01029697
:1021C000820F931F20915B0430915C04281739071C
:1021D00039F6309751F510925E0410925D04B09379
:1021E0005C04A0935B04BCCFD383C2834081518144
:1021F000840F951FC817D90761F44E5F5F4F888120
:102200009981480F591F518340838A819B81938311
:1022100082832115310509F0B0CFF0935E04E0937D
:102220005D049ECFFD01DC01C0CF13821282D7CFA7
:1022300010E0C2E6D0E004C0FE010E94ED0F21963E
:0A224000C336D107C9F7F894FFCFA9
:10224A0000005F048000000000002D018D00BA002C
:10225A007A01EB00C900DD000D0A006E616E0069AB
:10226A006E66006F766600536574757020456E74ED
:10227A006572696E672E2E2E2121210053657475B1
:10228A0070202D2D2044696D6D65722056616C7524
:10229A00652F427269676874203A2000202F200057
:1022AA00536574757020456E642E2E2E21212100EF
:1022BA0044696D6D65722056616C75653A200054EB
:1022CA00656D702E205661726961626C65204F6679
:1022DA00667365742056616C75653A2000525444E1
:1022EA002076616C75653A2000526174696F203DF1
:1022FA002000526573697374616E6365203D200026
:10230A0054656D7065726174757265203D20004672
:10231A0061756C74203078005254442048696768AB
:10232A00205468726573686F6C6400525444204C80
:10233A006F77205468726573686F6C640052454603
:10234A00494E2D203E20302E3835207820426961B2
:10235A007300524546494E2D203C20302E383520F8
:10236A00782042696173202D20464F5243452D2023
:10237A006F70656E00525444494E2D203C20302E19
:10238A00383520782042696173202D20464F524308
:10239A00452D206F70656E00556E6465722F4F76FD
:1023AA00657220766F6C74616765004661756C743E
:1023BA00204F636375727265642853656E736F721A
:1023CA002052656164204572726F72292E2E2E2862
:1023DA0000290054656D702E205265616420436F98
:1023EA00756E74203D2000615665726167652054E0
:1023FA00656D702E2056616C203D200054656D700D
:10240A002E204D415821210054656D702E204D49D2
:10241A004E212100486561746572204F4E2D4E2170
:10242A002100486561746572204F462D662121009E
:103800000C94341C0C94511C0C94511C0C94511CA1
:103810000C94511C0C94511C0C94511C0C94511C74
:103820000C94511C0C94511C0C94511C0C94511C64
:103830000C94511C0C94511C0C94511C0C94511C54
:103840000C94511C0C94511C0C94511C0C94511C44
:103850000C94511C0C94511C0C94511C0C94511C34
:103860000C94511C0C94511C11241FBECFEFD4E0BA
:10387000DEBFCDBF11E0A0E0B1E0EEEAFFE302C0A1
:1038800005900D92A230B107D9F712E0A2E0B1E0A5
:1038900001C01D92AD30B107E1F70E94331D0C94B9
:1038A000D51F0C94001C982F9595959595959595F9
:1038B000905D8F708A307CF0282F295A8091C0004B
:1038C00085FFFCCF9093C6008091C00085FFFCCFA0
:1038D0002093C6000895282F205DF0CF982F809167
:1038E000C00085FFFCCF9093C6000895EF92FF9231
:1038F0000F931F93EE24FF2487018091C00087FD62
:1039000017C00894E11CF11C011D111D81E2E8168D
:1039100081EAF80687E0080780E0180770F3E09175
:103920000401F091050109958091C00087FFE9CF5E
:103930008091C6001F910F91FF90EF9008950E9413
:10394000761C982F8091C00085FFFCCF9093C60015
:1039500091362CF490330CF09053892F089597559D
:10396000892F08951F930E949F1C182F0E949F1C4F
:103970001295107F810F1F9108951F93182F882390
:1039800021F00E94761C1150E1F71F9108951F93BA
:10399000182F0E94761C803249F0809103018F5FBE
:1039A000809303018530C1F01F9108958091C0007C
:1039B00085FFFCCF84E18093C6008091C00085FF25
:1039C000FCCF1093C6008091C00085FFFCCF80E142
:1039D0008093C6001F910895E0910401F0910501C4
:1039E00009951F9108950E94761C803241F08091C4
:1039F00003018F5F80930301853081F008958091EA
:103A0000C00085FFFCCF84E18093C6008091C00098
:103A100085FFFCCF80E18093C6000895E09104010A
:103A2000F09105010995089510920A028823D1F0BA
:103A300090E048EC50E02D9A28EE33E0FA013197FF
:103A4000F1F721503040D1F72D9828EE33E0FA01FC
:103A50003197F1F721503040D1F79F5F981758F315
:103A600080930A0208953F924F925F926F927F92E5
:103A70008F929F92AF92BF92CF92DF92EF92FF927E
:103A80000F931F93CF93DF9394B714BE8091600080
:103A90008861809360001092600091FF0CC289E100
:103AA0008093C4001092C50088E18093C10086E035
:103AB0008093C2005098589A259A81E00E94141D64
:103AC00044E1F42E3EE1E32E24E9D22E96E0C92E05
:103AD00080E1B82EAA24A39401E4902E16E5812E4D
:103AE000B2E57B2EA0E26A2EF9E45F2EE3E54E2ECE
:103AF00070E5372E0E94761C8033B9F18133C1F115
:103B0000803409F470C0813409F477C0823409F438
:103B100086C0853409F489C0803539F1823529F1B0
:103B2000813509F4AFC1853509F485C0863509F4BE
:103B30008DC0843609F435C1843709F4C1C0853796
:103B400009F490C0863709F466C0809103018F5F45
:103B500080930301853071F6E0910401F091050135
:103B600009950E94761C803349F60E94F31CC2CF4F
:103B70000E94761C803249F78091C00085FFFCCFFF
:103B8000F092C6008091C00085FFFCCF9092C600E5
:103B90008091C00085FFFCCF8092C6008091C0005C
:103BA00085FFFCCF7092C6008091C00085FFFCCFDE
:103BB0006092C6008091C00085FFFCCF5092C60085
:103BC0008091C00085FFFCCF4092C6008091C0006C
:103BD00085FFFCCF3092C6008091C00085FFFCCFEE
:103BE000B092C60087CF0E94761C863808F4BDCFFD
:103BF0000E94761C0E94F31C7DCF0E94761C8038A8
:103C000009F45AC0813809F453C0823809F440C11C
:103C1000883909F449C080E00E94C71C6BCF84E159
:103C20000E94BD1C0E94F31C65CF85E00E94BD1C54
:103C30000E94F31C5FCF0E94761C809306010E94B5
:103C4000761C809307010E94F31C54CF0E94761CBF
:103C5000803309F421C183E00E94BD1C80E00E94F2
:103C6000C71C48CF0E94761C803209F06ECF80912D
:103C7000C00085FFFCCFF092C6008091C00085FF98
:103C8000FCCFE092C6008091C00085FFFCCFD092AF
:103C9000C6008091C00085FFFCCFC092C600809115
:103CA000C00085FFFCCF9CCF83E00E94C71C22CFC1
:103CB00081E00E94C71C1ECF82E00E94C71C1ACF61
:103CC0000E94761C809309020E94761C8093080251
:103CD0008091060190910701880F991F9093070129
:103CE000809306010E94761C853409F4C5C080913A
:103CF0000C028E7F80930C020E94761C803209F0A9
:103D0000F9CE8091C00085FFFCCFF092C600609193
:103D10000802709109026115710591F140E050E0CF
:103D200080910C02A82FA170B82FB27010C0BB23D5
:103D300061F1E0910601F09107013196F0930701DE
:103D4000E09306014F5F5F4F46175707C8F4AA2359
:103D500071F3F999FECF209106013091070132BD30
:103D600021BDF89A90B58091C00085FFFCCF90935B
:103D7000C6002F5F3F4F3093070120930601E2CF2B
:103D80008091C00085FFFCCF2BCFE0910601F09120
:103D9000070194918091C00085FFFCCF9093C600ED
:103DA000CCCF0E94761C809309020E94761C8093DF
:103DB000080280910C028E7F80930C020E94761C78
:103DC000853429F480910C02816080930C028091EB
:103DD000080290910902892B89F000E010E00E940E
:103DE000761CF801E85FFE4F80830F5F1F4F8091C4
:103DF0000802909109020817190788F30E94761C9F
:103E0000803209F0A2CE80910C0280FF62C0409106
:103E1000060150910701440F551F5093070140932D
:103E20000601609108027091090261157105C9F0DF
:103E3000E8E0F1E09A01DB01AE0FBF1FF999FECF78
:103E400032BD21BD819180BDFA9AF99A2F5F3F4F13
:103E5000EA17FB0799F7460F571F50930701409346
:103E600006018091C00085FFFCCFF092C6008091D2
:103E7000C00085FFFCCFB4CE80910C02816080939E
:103E80000C023ACF0E94F31C88E080936000FFCFC1
:103E900080E10E94C71C2ECE0E94761C0E94761CD8
:103EA000182F0E94761C112381F0113051F086E00A
:103EB0000E94C71C1FCEE0910401F09105010995F5
:103EC000EECD84E90E94C71C15CE8EE10E94C71C6E
:103ED00011CE809107018823880F880B8A21809357
:103EE0000B028091060190910701880F991F909312
:103EF0000701809306018091080280FF09C080912C
:103F00000802909109020196909309028093080299
:103F1000F894F999FECF1127E0910601F09107017D
:103F2000C8E0D1E08091080290910902103091F42C
:103F30000091570001700130D9F303E0009357005E
:103F4000E8950091570001700130D9F301E1009329
:103F50005700E895099019900091570001700130C1
:103F6000D9F301E000935700E8951395103498F0C9
:103F700011270091570001700130D9F305E000933B
:103F80005700E8950091570001700130D9F301E125
:103F900000935700E8953296029709F0C7CF10308A
:0E3FA00011F00296E5CF11245CCFF894FFCF0C
:023FAE00800091
:0400000300003800C1
:00000001FF