:100000000C9462000C948A000C948A000C948A0070
:100010000C948B090C948A000C9495090C948A001A
:100020000C948A000C948A000C948A000C947D092C
:100030000C948A000C948A000C948A000C948A0018
:100040000C9433090C948A000C9401090C94DB087D
:100050000C948A000C948A000C948A000C948A00F8
:100060000C948A000C948A000000000024002700F1
:100070002A0000000000250028002B0000000000DE
:1000800023002600290004040404040404040202DA
:100090000202020203030303030301020408102007
:1000A0004080010204081020010204081020000012
:1000B0000008000201000003040700000000000027
:1000C00000009F0911241FBECFEFD8E0DEBFCDBFD7
:1000D00024E0AAEAB3E001C01D92AD3AB207E1F70D
:1000E00013E0A0E0B1E0E4EFFEE102C005900D9264
:1000F000AA3AB107D9F710E0C2E6D0E004C02197D0
:10010000FE010E94720FC136D107C9F70E94110A81
:100110000C94780F0C940000E4ECF3E0A089B18912
:1001200082E08C93A485B5851C92A685B78588E06E
:100130008C93108EA489B58986E08C93A289B389AB
:100140008C9180618C93A289B3898C9188608C9307
:10015000A289B3898C9180688C930288F389E02D01
:1001600080818F7D80830895CF92DF92EF92FF92FE
:100170000F931F932FB7F894C090C003D090C10382
:10018000E090C203F090C3032FBF6C0D7D1D8E1D48
:100190009F1D4FB7F8940091C0031091C1032091A7
:1001A000C2033091C3034FBF0C151D052E053F053B
:1001B00028F0601771078207930758F71F910F9176
:1001C000FF90EF90DF90CF900895AF92BF92CF92C3
:1001D000DF92EF92FF920F931F93CF93DF936C0107
:1001E0007B018B01040F151FEB015E01AE18BF08E8
:1001F000C017D10759F06991D601ED91FC9101909A
:10020000F081E02DC6010995892B79F7C501DF91B1
:10021000CF911F910F91FF90EF90DF90CF90BF9003
:10022000AF900895FC01538D448D252F30E0842F2D
:1002300090E0821B930B541710F0CF96089501970E
:100240000895FC01918D828D981761F0A28DAE0FFB
:10025000BF2FB11D5D968C91928D9F5F9F73928F82
:1002600090E008958FEF9FEF0895FC01918D828DAE
:10027000981731F0828DE80FF11D858D90E008957B
:100280008FEF9FEF0895FC01918D228D892F90E0D3
:10029000805C9F4F821B91098F739927089584EC8E
:1002A00093E00E94430121E0892B09F420E0822F92
:1002B000089580E090E0892B29F00E944F01811180
:1002C0000C9400000895FC01A48DA80FB92FB11D56
:1002D000A35ABF4F2C91848D90E001968F7399277C
:1002E000848FA689B7892C93A089B1898C9183705A
:1002F00080648C93938D848D981306C00288F38953
:10030000E02D80818F7D80830895EF92FF920F937F
:100310001F93CF93DF93EC0181E0888F9B8D8C8DB1
:1003200098131AC0E889F989808185FF15C09FB7A5
:10033000F894EE89FF896083E889F9898081837068
:10034000806480839FBF81E090E0DF91CF911F9117
:100350000F91FF90EF900895F62E0B8D10E00F5F38
:100360001F4F0F731127E02E8C8D8E110CC00FB60E
:1003700007FCFACFE889F989808185FFF5CFCE01A6
:100380000E946301F1CFEB8DEC0FFD2FF11DE35ABD
:10039000FF4FF0829FB7F8940B8FEA89FB89808129
:1003A0008062CFCFCF93DF93EC01888D8823B9F0A3
:1003B000AA89BB89E889F9898C9185FD03C0808170
:1003C00086FD0DC00FB607FCF7CF8C9185FFF2CFED
:1003D000808185FFEDCFCE010E946301E9CFDF91DF
:1003E000CF910895833081F028F4813099F08230E4
:1003F000A9F008958730A9F08830C9F08430B1F4AD
:10040000809180008F7D03C0809180008F778093E2
:100410008000089584B58F7784BD089584B58F7D5D
:10042000FBCF8091B0008F778093B00008958091CA
:10043000B0008F7DF9CFCF93DF93282F30E0F90103
:10044000E255FF4F8491F901E656FF4FD491F9012F
:10045000EA57FF4FC491CC23A1F081110E94F20111
:10046000EC2FF0E0EE0FFF1FE458FF4FA591B49181
:10047000EC91ED2381E090E009F480E0DF91CF91F1
:10048000089580E090E0FACF1F93CF93DF93282F59
:1004900030E0F901E255FF4F8491F901E656FF4F34
:1004A000D491F901EA57FF4FC491CC23A9F0162F3C
:1004B00081110E94F201EC2FF0E0EE0FFF1FEE58C9
:1004C000FF4FA591B4918FB7F894EC91111108C02A
:1004D000D095DE23DC938FBFDF91CF911F910895DC
:1004E000DE2BF8CFCF93DF9390E0FC01E656FF4F71
:1004F00024918A579F4FFC0184918823D1F090E08A
:10050000880F991FFC01E859FF4FA591B491FC0198
:10051000EE58FF4FC591D49161110EC09FB7F8946A
:100520008C91E22FE0958E238C932881E223E8833F
:100530009FBFDF91CF9108958FB7F894EC91E22B94
:10054000EC938FBFF6CF1F93CF93DF93182FEB0160
:1005500061E00E947202CF3FD10539F461E0812F42
:10056000DF91CF911F910C944402E12FF0E0E2550E
:10057000FF4FE491E33039F148F4E130B9F0E23073
:10058000E9F0C038D10554F760E0E9CFE73029F150
:10059000E83059F1E430A9F78091800080628093BF
:1005A0008000D0938B00C0938A0004C084B580681B
:1005B00084BDC7BDDF91CF911F91089584B580623E
:1005C00084BDC8BDF7CF8091800080688093800093
:1005D000D0938900C0938800EDCF8091B0008068EF
:1005E0008093B000C093B300E5CF8091B0008062EB
:1005F0008093B000C093B400DDCF8E3008F08E50F1
:100600008770806480937C0080917A0080648093FE
:100610007A0080917A0086FDFCCF809178009091DD
:10062000790008953FB7F8948091AD039091AE039F
:10063000A091AF03B091B00326B5A89B05C02F3F92
:1006400019F00196A11DB11D3FBFBA2FA92F982FF8
:100650008827BC01CD01620F711D811D911D43E0F2
:10066000660F771F881F991F4A95D1F708958F92BB
:100670009F92AF92BF92CF92DF92EF92FF926B0167
:100680007C010E9412034B015C01C114D104E104FE
:10069000F104B9F00E941203681979098A099B09CB
:1006A000683E73408105910580F321E0C21AD108AC
:1006B000E108F10888EE880E83E0981EA11CB11CA9
:1006C000E4CFFF90EF90DF90CF90BF90AF909F90DE
:1006D0008F900895AF92BF92CF92DF92EF92FF92E8
:1006E0001F93CF93DF937C0110E0C7E0D0E080E15F
:1006F000C82ED12CAA24A394B12C60E0F7018081EC
:100700000E944402C6010197F1F7F70181810E941E
:100710001B02892B39F0C5010C2E01C0880F0A94E9
:10072000EAF7182B61E0F70180810E944402C601BC
:100730000197F1F7219708F7812FDF91CF911F9152
:10074000FF90EF90DF90CF90BF90AF9008950F9300
:100750001F93CF93DF938C0160E0FC0182810E94A4
:10076000440280E190E00197F1F7C8010E946A031A
:10077000C82FD0E0DC2FCC27C8010E946A03C82B09
:1007800061E0F80182810E94440260E070E080EC48
:100790009FE7C2FD10C083E0D695C7958A95E1F723
:1007A000BE0190E080E00E94F10C20E030E040E8E3
:1007B0005EE30E94520DDF91CF911F910F9108953A
:1007C000CF93DF93C82F682F617084E00E944402AA
:1007D000D0E0BE0175956795617083E00E94440288
:1007E000D595C795D595C7956C2F617082E00E940D
:1007F000440283E1DF91CF910C94FD02FC01019052
:100800000020E9F73197AF01481B590BBC0184EC7C
:1008100093E00C94E5008F929F92AF92BF920F935A
:100820001F93CF93DF93CDB7DEB7A1970FB6F894A0
:10083000DEBF0FBECDBF19A2423008F44AE08E01E0
:100840000F5D1F4F842E912CB12CA12CA50194017A
:100850000E94100EE62FB901CA01EA30F4F4E05DFF
:10086000D801EE938D01232B242B252B79F790E0D3
:1008700080E0109719F0CD010E94FE03A1960FB6FB
:10088000F894DEBF0FBECDBFDF91CF911F910F91C6
:10089000BF90AF909F908F900895E95CE1CFCF9289
:1008A000DF92EF92FF92CF93DF936B017C016DE2B9
:1008B00084EC93E00E948501EC0166277727CB0149
:1008C0006C197D098E099F094AE00E940B048C0F68
:1008D0009D1FDF91CF91FF90EF90DF90CF90089513
:1008E0000C94FE03CF93DF930E94FE03EC0184E19E
:1008F00091E00E94FE038C0F9D1FDF91CF91089520
:100900004F925F926F927F928F929F92AF92BF921F
:10091000CF92DF92EF92FF920F931F93CF936B01D1
:100920007C01742EAC019B010E94450F882399F035
:1009300087E191E0CF911F910F91FF90EF90DF90B1
:10094000CF90BF90AF909F908F907F906F905F906F
:100950004F900C94FE0346015701E894B7F82FEF2F
:100960003FEF4FE75FE7C501B4010E94450F8111DA
:100970000DC02FEF3FEF4FE75FE7C501B4010E94C5
:10098000EC0C18161CF48BE191E0D4CF2FEF3FEF65
:100990004FE75FE4C701B6010E94400F18161CF430
:1009A0008FE191E0C7CF2FEF3FEF4FE75FECC7013B
:1009B000B6010E94EC0C87FDF3CF20E030E0A901E6
:1009C000C701B6010E94EC0C10E000E087FF0AC0EE
:1009D0006DE284EC93E00E9485018C01F7FAF094BB
:1009E000F7F8F094C0E060E070E080E09FE37C16F0
:1009F00041F020E030E040E251E40E949F0ECF5FE2
:100A0000F6CFA70196010E94330E2B013C010E94F4
:100A1000110F4B015C014AE00E940B047C01E00EC7
:100A2000F11ECC23C1F1C501B4010E94F10C9B0160
:100A3000AC01C301B2010E94320E4B015C016EE2B7
:100A400084EC93E00E948501E80EF91EC15018F174
:100A500020E030E040E251E4C501B4010E94520DB3
:100A60002B013C010E94110F4B01B12CA12C4AE03B
:100A7000C501B4010E940B04E80EF91EC501B401C2
:100A80000E94F10C9B01AC01C301B2010E94320E25
:100A90004B015C01DBCFC701CF911F910F91FF90FC
:100AA000EF90DF90CF90BF90AF909F908F907F900E
:100AB0006F905F904F900895CF93DF93BC01990F93
:100AC000880B990B97FF0CC00E944F04EC0184E146
:100AD00091E00E94FE038C0F9D1FDF91CF9108953E
:100AE0004AE00E940B04F2CF0F931F93CF93DF9342
:100AF000EC0183E291E00E94700484E00E94E00334
:100B00008C010E945C050C3311053CF18091B1030E
:100B10009091B20387309105B4F401969093B2039B
:100B20008093B10384E10E94FD02CE5EDE4FC817C0
:100B3000D9070CF043C060E082E1DF91CF911F91B3
:100B40000F910C94440288E090E09093B20380935C
:100B5000B10361E00E944402E5CF1092B20310920B
:100B6000B10360E088E00E9444028FE291E00E94BD
:100B7000700484E10E94FD028C010E945C05053F27
:100B8000110564F461E082E10E94440287E491E08F
:100B9000DF91CF911F910F910C947204CD5EDE4FC7
:100BA000C017D10744F460E082E10E94440287E666
:100BB00091E00E9472048BE791E0EACFDF91CF9140
:100BC0001F910F9108950F931F93CF93C82F0E94E9
:100BD000FD028C01CD9794F480E991E00E947004AD
:100BE0006C2F70E090E080E04AE00E940B0484EA01
:100BF00091E00E947004C8010E945C05C801CF9179
:100C00001F910F910895CF92DF92EF92FF9288EAA1
:100C100091E00E94700487EA94E00E94A7036B01B0
:100C20007C0142E00E94800484E191E00E94FE0386
:100C3000C701B601FF90EF90DF90CF900895CF925B
:100C4000DF92EF92FF92CF93DF93EC018EEA91E077
:100C50000E94700486E00E94E0037C010E945C0513
:100C60008CE3E816F1040CF452C01092BD0380919D
:100C7000B3039091B403873091050CF501969093DE
:100C8000B4038093B3030E9403066B017C01BE0191
:100C9000615A7F4F072E000C880B990B0E94F30CB2
:100CA000A70196010E94EC0C60E018160CF047C0FA
:100CB000DF91CF91FF90EF90DF90CF90089588E083
:100CC00090E09093B4038093B3038091B803909124
:100CD000B9038430910554F482309105B4F497FF40
:100CE0000EC01092B9031092B803CDCF8830910591
:100CF000C4F701969093B9038093B803C4CF2E9A9A
:100D00008091B8039091B903F4CF2E98F9CF109247
:100D1000B9031092B8031092B4031092B3032E9843
:100D20000E9403066B017C0120E030E04CEA52E4B3
:100D30000E94EC0C181664F01092BD0361E080E193
:100D4000DF91CF91FF90EF90DF90CF900C94440211
:100D500020E030E044EB52E4C701B6010E94EC0C05
:100D600061E087FD10C0BE01615A7F4F072E000C65
:100D7000880B990B0E94F30CA70196010E94EC0CC2
:100D800087FF04C060E080E10E94440281E080931C
:100D9000BD038AEB91E0DF91CF91FF90EF90DF9060
:100DA000CF900C947204CF92DF92EF92FF92CF9388
:100DB000DF93EC0180ED91E00E9470048AEA94E0F8
:100DC0000E94A7036B017C0142E00E94800484E141
:100DD00091E00E94FE030E94030620E030E04CED0B
:100DE00052E4C701B6010E94EC0C181664F0109290
:100DF000BE0361E081E1DF91CF91FF90EF90DF9042
:100E0000CF900C944402BE016E577F4F072E000C0A
:100E1000880B990B0E94F30CA70196010E94EC0C21
:100E2000181624F060E081E10E94440281E0809382
:100E3000BE0386ED91E0DF91CF91FF90EF90DF90C0
:100E4000CF900C9472048AE090E00E941F068EE11D
:100E500090E00E9474058AE090E00E94D30664E16D
:100E600070E080E090E00C9437030F931F93CF93D2
:100E7000DF93EC0184EF91E00E94700487E00E9410
:100E80001B02892B89F580EF91E00E947204C23029
:100E9000D10509F48FC05CF5219709F46BC0CAEC49
:100EA000D8E08EE00E94E305CC978CF061E086E00C
:100EB0000E9444026CE670E086E00E94A30264E1B6
:100EC00070E080E090E00E943703219751F761E0E5
:100ED00086E00E9444026FEF70E085E0DF91CF91E1
:100EE0001F910F910C94A3028BEE91E0CECFC330F3
:100EF000D10509F47EC0249791F6CEEED2E004E647
:100F000010E061E086E00E94440260E870E085E065
:100F10000E94A3028EE00E94E305CC97C4F2CE01AA
:100F2000B8010E944A0F892B09F082C00E94230752
:100F3000219739F764E670E080E090E00E94370383
:100F4000CEE5D1E061E086E00E94440260E870E016
:100F500085E00E94A3028EE00E94E305CC970CF48A
:100F6000B6CF64E170E080E090E00E943703219703
:100F700049F7ADCFCEEED2E060E870E086E00E94A7
:100F8000A30261E085E00E94440264E170E080E039
:100F900090E00E943703219779F76FEF70E086E0C9
:100FA0000E94A30261E085E0DF91CF911F910F9134
:100FB0000C944402C2ECD1E004E610E060E870E07A
:100FC00086E00E94A30261E085E00E944402CE0117
:100FD000B8010E944A0F892B29F40E942307219708
:100FE00069F7DBCF64E170E080E090E00E943703B6
:100FF000F6CFC2ECD1E004E610E061E086E00E94AA
:10100000440260E870E085E00E94A302CE01B801CE
:101010000E944A0F892B29F40E942307219769F720
:1010200056CF64E170E080E090E00E943703F6CF95
:1010300064E170E080E090E00E94370379CFCF92C6
:10104000DF92EF92FF920F931F93CF93DF937C0178
:101050008B01D0E0C0E087E0C82ED12C0130110513
:10106000B1F002301105B9F06AEC73E080E090E075
:101070000E9437032196EC16FD0681F7DF91CF9190
:101080001F910F91FF90EF90DF90CF900895D09235
:10109000B403C092B3038AE090E00E941F068EE181
:1010A00090E00E947405E0CFCF93DF93EC0184E1E0
:1010B00092E00E94720481E090E00E94350766E9A8
:1010C00070E080E090E00E94370361E080E10E94E0
:1010D000440266E970E080E090E00E94370361E03E
:1010E00082E10E94440266E970E080E090E00E94A4
:1010F00037032F9AC130D10584F070E060E081E1C0
:1011000090E0C330D1050CF453C070E060E08CE097
:1011100090E0C330D10509F44BC02F9861E070E036
:1011200085E090E00E941F0861E070E084E090E0BC
:101130000E941F0882E090E00E94350761E081E193
:101140000E94440268EE73E080E090E00E94370362
:1011500061E089E00E944402249730F462E070E08C
:101160008AE590E00E941F0860E089E00E94440246
:1011700066E970E080E090E00E94370383E090E051
:101180000E94350766E970E080E090E00E94370336
:1011900084E090E00E94350766E970E080E090E02E
:1011A0000E94370386E392E0DF91CF910C947204A2
:1011B0000E941F08B2CF1F920F920FB60F921124F8
:1011C0002F933F934F935F936F937F938F939F934F
:1011D000AF93BF93EF93FF9384EC93E00E9463017E
:1011E000FF91EF91BF91AF919F918F917F916F91FF
:1011F0005F914F913F912F910F900FBE0F901F90D5
:1012000018951F920F920FB60F9211242F938F9360
:101210009F93EF93FF93E091D403F091D5038081E6
:10122000E091DA03F091DB0382FD1BC09081809195
:10123000DD038F5F8F732091DE03821741F0E09111
:10124000DD03F0E0EC53FC4F958F8093DD03FF91BD
:10125000EF919F918F912F910F900FBE0F901F9044
:1012600018958081F4CF1F920F920FB60F92112420
:101270002F933F938F939F93AF93BF938091C0031E
:101280009091C103A091C203B091C3033091AC030C
:1012900026E0230F2D3758F50296A11DB11D20938E
:1012A000AC038093C0039093C103A093C203B09397
:1012B000C3038091AD039091AE03A091AF03B091B1
:1012C000B0030196A11DB11D8093AD039093AE03B1
:1012D000A093AF03B093B003BF91AF919F918F9153
:1012E0003F912F910F900FBE0F901F90189529E8F6
:1012F000230F0396A11DB11DD2CF1F920F920FB6DF
:101300000F92112410928500109284000F900FBE4E
:101310000F901F9018951F920F920FB60F921124E5
:101320000F900FBE0F901F9018951F920F920FB63F
:101330000F9211240F900FBE0F901F9018950F93CE
:101340001F93CF93DF93E4ECF3E01382128288EED5
:1013500093E0A0E0B0E084839583A683B78386E022
:1013600091E09183808385EC90E09587848784EC7D
:1013700090E09787868780EC90E0918B808B81EC62
:1013800090E0938B828B82EC90E0958B848B86EC43
:1013900090E0978B868B118E128E138E148EE1E661
:1013A000F4E0168217821086118612861386148640
:1013B000158616861786108A118A128A138A148A4D
:1013C000158ACAEAD4E00DE008838BE08A831CE02A
:1013D000198361E00E94720261E088810E947202BA
:1013E00060E089810E94720261E08A810E94440269
:1013F000C7EAD4E008838AE08A83198361E00E9407
:10140000720261E088810E94720260E089810E941C
:10141000720261E08A81DF91CF911F910F910C944C
:101420004402789484B5826084BD84B5816084BDB3
:1014300085B5826085BD85B5816085BD80916E0072
:10144000816080936E0010928100809181008260A3
:1014500080938100809181008160809381008091E0
:1014600080008160809380008091B10084608093CF
:10147000B1008091B00081608093B00080917A00CB
:10148000846080937A0080917A00826080937A00F1
:1014900080917A008E7F80937A0080917A008068B4
:1014A00080937A001092C1001092A3041092A404B9
:1014B0001092A5041092A604109263041092640482
:1014C000109265041092660468EB7BE080E090E087
:1014D0000E94B40068EE73E080E090E00E94370361
:1014E0000E948C002FB7F8948091C0039091C103A3
:1014F000A091C203B091C3032FBF80936304909364
:101500006404A0936504B093660489E592E00E94A8
:1015100070046AE070E080E090E00E94B40081E036
:10152000809377040E948C0061E080E00E94720248
:1015300061E080E00E94440261E084E00E94720267
:1015400061E083E00E94720261E082E00E94720228
:1015500061E088E00E94720260E088E00E9444023C
:1015600061E089E00E94720260E089E00E9444022A
:1015700084B1806C84B92E982F9861E082E10E943A
:10158000720260E082E10E94440261E081E10E9417
:10159000720260E081E10E94440261E080E10E9409
:1015A000720260E080E10E94440260E084E10E94F7
:1015B000720260E087E00E94720261E086E00E94B1
:1015C000720261E085E00E94720260E086E00E94A3
:1015D000440260E085E00E94440260E08EE00E94E8
:1015E000720260E085E10E94720260E08FE00E947A
:1015F000720287E00E941B02892B09F092C08AE6E2
:1016000092E00E94720490E080E00E943507809191
:10161000BE03882329F08091BD0361E0811101C0E0
:1016200060E080E00E9444021092B6031092B5037D
:1016300061E080E10E9444021092B4031092B3036F
:101640001092B2031092B10388248A9483E0982EFA
:1016500001E010E0EE24E394F12C23E0C22ED12C23
:1016600032E0A32EB12C1092BF0390920101809220
:101670000001412C512C3201312C842D8D7F84307E
:1016800019F183EA92E00E9470044AE0C301B201BA
:101690000E940B048AEB92E00E947004842D0E9449
:1016A000E00390930101809300010E945C0580910A
:1016B000000190910101CC973CF4C801042C01C0B9
:1016C000880F0A94EAF7382A8FEF481A580A680AEE
:1016D000780A98E0491651046104710471F6309259
:1016E000BF0383EC92E00E9470046091BF0370E03E
:1016F00090E080E04AE00E940B0484E191E00E94C7
:10170000FE03C091BF03C03209F408C148F5C230DE
:1017100009F488C048F4C13009F466C01092BC03D3
:101720002CC083E892E06DCFC43009F4A6C0C83065
:10173000A9F71092BC038DE493E00E947204F0922A
:10174000BB03E092BA038091BE038823B1F080917D
:10175000BD03882391F081E090E00E9454080DC001
:10176000C03809F4F2C020F4C832C1F62F9A05C07F
:10177000C83809F403C1C03A89F61092B90310922F
:10178000B80390E080E00E94740590E080E00E9441
:101790001F0690E080E00E94D3068091BE0388235C
:1017A00009F4EEC08091BD03882309F4E9C061E02B
:1017B00080E00E9444021092B7031092B603109288
:1017C000B50368EE73E080E090E00E94370380E0AC
:1017D00090E0892B09F447CF0E944F01882309F438
:1017E00042CF0E9400003FCF86ED92E00E9472043B
:1017F0008091BE03882351F08091BD03882331F08E
:101800008091BC03811107C0C093BC031092BB033D
:101810001092BA03B2CF1092BC038DEE92E00E94F8
:101820007204F4CF1092BC038091BD03882371F33E
:101830008BE193E00E94720481E090E00E94350702
:1018400061E080E10E94440266E970E080E090E09F
:101850000E9437032F9A70E060E082E090E00E94DF
:101860001F082F9884E090E00E94350766E970E039
:1018700080E090E00E943703C9CF1092BC038091B2
:10188000BE03882319F284E393E00E94720481E08E
:1018900090E00E94350766E970E080E090E00E94E9
:1018A000370382E090E00E94350766E970E080E04F
:1018B00090E00E94370361E082E10E94440266E901
:1018C00070E080E090E00E94370361E081E10E94D7
:1018D000440266E970E080E090E00E94370361E036
:1018E00089E00E94440262E070E08FE090E00E9494
:1018F0001F0860E089E00E94440266E970E080E031
:1019000090E00E94370383E090E00E94350766E98B
:1019100070E080E090E00E943703A4CF1092BC03F7
:1019200084E693E00E947204D092BB03C092BA0393
:101930008091BE03882309F420CF8091BD038823C2
:1019400009F41BCF83E090E008CF1092BC03B09263
:10195000BB03A092BA038BE793E00E9472048091CC
:10196000BE03882309F409CF8091BD03882309F4BD
:1019700004CF8091BA039091BB03EFCE2F98FDCE98
:101980008091B5039091B60382309105FCF083E914
:1019900093E00E9470046091B70370E090E080E0F3
:1019A0004AE00E940B0484EA93E00E9472041092C1
:1019B000B6031092B5037090B703672D80E00E94C4
:1019C000440281E078267092B703FBCE0196909393
:1019D000B6038093B503F5CE0E942E0D08F481E086
:1019E0000895E89409C097FB3EF490958095709512
:1019F00061957F4F8F4F9F4F9923A9F0F92F96E95B
:101A0000BB279395F695879577956795B795F111CF
:101A1000F8CFFAF4BB0F11F460FF1BC06F5F7F4F6C
:101A20008F4F9F4F16C0882311F096E911C077237E
:101A300021F09EE8872F762F05C0662371F096E887
:101A4000862F70E060E02AF09A95660F771F881F56
:101A5000DAF7880F9695879597F90895990F0008FA
:101A6000550FAA0BE0E8FEEF16161706E807F90770
:101A7000C0F012161306E407F50798F0621B730B0B
:101A8000840B950B39F40A2661F0232B242B252B8C
:101A900021F408950A2609F4A140A6958FEF811D2F
:101AA000811D08950E94650D0C94D60D0E94C80DED
:101AB00038F00E94CF0D20F0952311F00C94BF0D4B
:101AC0000C94C50D11240C940A0E0E94E70D70F3BE
:101AD000959FC1F3950F50E0551F629FF001729FD3
:101AE000BB27F00DB11D639FAA27F00DB11DAA1FE2
:101AF000649F6627B00DA11D661F829F2227B00D2F
:101B0000A11D621F739FB00DA11D621F839FA00DB9
:101B1000611D221F749F3327A00D611D231F849F09
:101B2000600D211D822F762F6A2F11249F57504060
:101B30009AF0F1F088234AF0EE0FFF1FBB1F661FDB
:101B4000771F881F91505040A9F79E3F510580F0A4
:101B50000C94BF0D0C940A0E5F3FE4F3983ED4F34F
:101B6000869577956795B795F795E7959F5FC1F748
:101B7000FE2B880F911D9695879597F9089597F9F3
:101B80009F6780E870E060E008959FEF80EC089523
:101B900000240A941616170618060906089500244C
:101BA0000A9412161306140605060895092E0394C6
:101BB000000C11F4882352F0BB0F40F4BF2B11F43A
:101BC00060FF04C06F5F7F4F8F4F9F4F089557FD99
:101BD0009058440F551F59F05F3F71F04795880F9B
:101BE00097FB991F61F09F3F79F087950895121632
:101BF00013061406551FF2CF4695F1DF08C01616DE
:101C000017061806991FF1CF86957105610508948E
:101C10000895E894BB2766277727CB0197F90895A5
:101C2000A1E21A2EAA1BBB1BFD010DC0AA1FBB1FE0
:101C3000EE1FFF1FA217B307E407F50720F0A21B52
:101C4000B30BE40BF50B661F771F881F991F1A94BF
:101C500069F760957095809590959B01AC01BD01E9
:101C6000CF0108955058BB27AA270E944A0E0C9412
:101C7000D60D0E94C80D38F00E94CF0D20F039F427
:101C80009F3F19F426F40C94C50D0EF4E095E7FB84
:101C90000C94BF0DE92F0E94E70D58F3BA176207A5
:101CA00073078407950720F079F4A6F50C94090EC4
:101CB0000EF4E0950B2EBA2FA02D0B01B901900167
:101CC0000C01CA01A0011124FF27591B99F0593FAB
:101CD00050F4503E68F11A16F040A22F232F342FF3
:101CE0004427585FF3CF469537952795A795F04041
:101CF0005395C9F77EF41F16BA0B620B730B840B56
:101D0000BAF09150A1F0FF0FBB1F661F771F881F0D
:101D1000C2F70EC0BA0F621F731F841F48F4879565
:101D200077956795B795F7959E3F08F0B0CF939557
:101D3000880F08F09927EE0F9795879508950E94D0
:101D4000B30E0C94D60D0E94CF0D58F00E94C80D12
:101D500040F029F45F3F29F00C94BF0D51110C9411
:101D60000A0E0C94C50D0E94E70D68F39923B1F398
:101D7000552391F3951B550BBB27AA2762177307B1
:101D8000840738F09F5F5F4F220F331F441FAA1F45
:101D9000A9F335D00E2E3AF0E0E832D09150504001
:101DA000E695001CCAF72BD0FE2F29D0660F771FAF
:101DB000881FBB1F261737074807AB07B0E809F095
:101DC000BB0B802DBF01FF2793585F4F3AF09E3F1A
:101DD000510578F00C94BF0D0C940A0E5F3FE4F3AC
:101DE000983ED4F3869577956795B795F7959F5F5D
:101DF000C9F7880F911D9695879597F90895E1E0A9
:101E0000660F771F881FBB1F621773078407BA0707
:101E100020F0621B730B840BBA0BEE1F88F7E09562
:101E200008950E94EF0D88F09F5798F0B92F9927D9
:101E3000B751B0F0E1F0660F771F881F991F1AF0B5
:101E4000BA95C9F714C0B13091F00E94090EB1E003
:101E500008950C94090E672F782F8827B85F39F002
:101E6000B93FCCF3869577956795B395D9F73EF44E
:101E700090958095709561957F4F8F4F9F4F0895F6
:101E80000E942E0D08F48FEF08950E942E0D880BEE
:101E9000990B089597FB072E16F4009407D077FD51
:101EA00009D00E945E0F07FC05D03EF49095819505
:101EB0009F4F0895709561957F4F0895AA1BBB1B96
:101EC00051E107C0AA1FBB1FA617B70710F0A61B3A
:101ED000B70B881F991F5A95A9F780959095BC015B
:101EE000CD010895EE0FFF1F0590F491E02D0994A8
:041EF000F894FFCF94
:101EF400FF03000000008501E5001201D201430147
:101F0400210135010D0A006E616E00696E66006F75
:101F140076660057614C6576656C2D343D20005023
:101F2400726573737572652053656E736F72205694
:101F3400616C75653A20005761746572204C6F7747
:101F44002050726573737572652848656174657293
:101F5400204F6E2E212100576174657220486561FF
:101F6400746572204F666620212100576174657282
:101F740020426F78205265616479204F6B212100E3
:101F8400416D6269656E742053656E736F7228705B
:101F9400696E2D00293A20004320323D200052650D
:101FA4004C6576656C2D363D20005265636970651D
:101FB40020426F78205265616479204F6B212100A3
:101FC4004320313D2000537465616D20426F7820B9
:101FD4005265616479204F6B2121004849474800CC
:101FE4004C4F57004D6F746F72204D6F7665203AD9
:101FF400204D6F746F72204572726F7220466C614F
:10200400673D20006C6D735F73746172745F427519
:1020140074746F6E50726573732D2D537461727482
:102024002D2D2D2121006C6D735F73746172745FAB
:10203400427574746F6E50726573732D2D456E64A2
:102044002E2E2E2D2D2D212100564D4450565F311C
:102054007C315F564D4450560A004D6F746F7220A8
:102064004546204572726F72212120284C4F572912
:102074003F3F004D6F746F72204546204E6F2D45D3
:1020840072726F72202848494748292D2D2D2D2D15
:102094002121004D75782053656E736F7228737714
:1020A400697463682D636829200020726561647314
:1020B4003A2000675F627974654D757856616C7576
:1020C4006531203A2000537461727420427574742F
:1020D4006F6E2050726573736564212100537461BF
:1020E400727420427574746F6E205265616C202D79
:1020F4002D2D2D2D2D2D20436F6E74696E75652049
:102104005072657373656420212100776174657270
:102114005F427574746F6E50726573732D2D2D2D1F
:102124002D212100737465616D5F427574746F6E47
:1021340050726573732D2D2D2D2D2121004C61724C
:10214400676520427574746F6E2050726573736591
:1021540064212100536D616C6C2D427574746F6E33
:1021640020507265737365642121004D656469753F
:102174006D20427574746F6E20507265737365645C
:102184002121004C454420546F67676C652E2E2E28
:0A2194002E2E5B005D2021210000CB
:00000001FF
